:020000040804EE
:10000000FCFF0724750F0408690D0408710D04082E
:10001000790D0408810D0408890D04080000000012
:10002000000000000000000000000000910D040826
:100030009F0D040800000000AD0D0408BB0D04086E
:10004000C90F0408C90F0408C90F0408C90F040820
:10005000C90F0408C90F0408C90F0408C90F040810
:10006000C90F0408C90F0408C90F0408C90F040800
:10007000C90F0408C90F0408C90F0408C90F0408F0
:10008000C90F0408C90F0408C90F0408C90F0408E0
:10009000C90F0408C90F0408C90F0408C90F0408D0
:1000A000C90F0408C90F0408C90F0408C90F0408C0
:1000B000C90F0408C90F0408C90F0408C90F0408B0
:1000C000C90F0408C90F0408C90F0408C90F0408A0
:1000D000C90F0408C90F0408C90F0408C90F040890
:1000E000C90F0408C90F040800000000C90F040864
:1000F000C90F0408C90F0408C90F0408C90F040870
:10010000C90F0408C90F0408C90F0408C90F04085F
:10011000C90F0408C90F0408C90F0408C90F04084F
:10012000C90F0408C90F0408C90F0408C90F04083F
:10013000C90F0408C90F0408C90F0408C90F04082F
:10014000C90F0408C90F04080000000000000000E7
:10015000C90F0408C90F0408C90F0408C90F04080F
:10016000C90F0408C90F0408C90F0408C90F0408FF
:10017000C90F0408C90D0408C90F040800000000D5
:10018000C90F0408C90F0408C90F0408C90F0408DF
:10019000C90F0408C90F0408C90F0408C90F0408CF
:1001A000C90F0408C90F0408C90F0408C90F0408BF
:1001B000C90F0408C90F0408C90F0408C90F0408AF
:1001C000C90F0408C90F0408C90F0408C90F04089F
:1001D000C90F0408C90F0408C90F0408C90F04088F
:1001E000C90F0408C90F0408C90F0408C90F04087F
:1001F000C90F0408C90F0408C90F0408C90F04086F
:10020000C90F0408C90F0408C90F0408C90F04085E
:10021000C90F0408C90F0408C90F0408C90F04084E
:10022000C90F0408C90F0408C90F0408C90F04083E
:10023000C90F0408C90F0408C90F0408C90F04082E
:10024000C90F0408C90F0408C90F0408C90F04081E
:10025000C90F0408C90F0408C90F0408C90F04080E
:10026000C90F0408C90F0408C90F0408C90F0408FE
:10027000C90F0408C90F0408C90F0408C90F0408EE
:10028000C90F0408C90F0408C90F040800000000C2
:08029000C90F0408C90F04089E
:1002A00010B5054C237833B9044B13B10448AFF3B0
:1002B00000800123237010BD4001002400000000D5
:1002C000D8C1040808B5034B1BB103490348AFF379
:1002D000008008BD0000000044010024D8C10408CB
:1002E00001F0FF01102A2BDB10F0070F08D010F8E7
:1002F000013B013A8B422DD010F0070F42B3F6D1EB
:10030000F0B441EA012141EA014122F007047FF003
:1003100000070023F0E80256083C85EA010586EA5A
:10032000010685FA47F5A3FA87F586FA47F6A5FA96
:1003300087F68EB9EED1F0BC01F0FF0102F00702A2
:1003400032B110F8013B013A83EA010313B1F8D14D
:100350000020704701387047002D06BF354603382E
:10036000073815F0010F07D1013015F4807F02BF67
:10037000013015F4C03F0130F0BC0138704700BFB8
:1003800053B94AB9002908BF00281CBF4FF0FF31FC
:100390004FF0FF3000F088B9ADF1080C6DE904CEE4
:1003A00000F006F8DDF804E0DDE9022304B0704750
:1003B0002DE9F047089D8E4604468846002B4AD119
:1003C0008A42174662D9B2FA82F64EB1C6F12003CC
:1003D00001FA06F820FA03F3B74043EA0808B440EC
:1003E0004FEA174E1FFA87FCB8FBFEF1230C0EFBF9
:1003F000118843EA084301FB0CF29A4209D9FB1821
:1004000001F1FF3080F0EA809A4240F2E780023941
:100410003B449A1AA3B2B2FBFEF00EFB102243EA51
:10042000024300FB0CFC9C4509D9FB1800F1FF328C
:1004300080F0D6809C4540F2D3803B44023840EAAD
:100440000140A3EB0C0300211DB1F3400022C5E9DC
:100450000032BDE8F0878B4205D90DB1C5E9000136
:1004600000210846F5E7B3FA83F1002946D1734528
:1004700002D3824200F20581841A6EEB030201204E
:100480009046002DE5D0C5E90048E2E7002A00F0DB
:100490009080B2FA82F6002E40F0A4808A1A030CF3
:1004A0004FEA174E80B2BCB20121B2FBFEFC0EFB3C
:1004B0001C2243EA024304FB0CF29A4207D9FB18C0
:1004C0000CF1FF3802D29A4200F2E080C4469B1A37
:1004D000B3FBFEF20EFB123340EA034302FB04F4CB
:1004E0009C4207D9FB1802F1FF3002D29C4200F275
:1004F000CA8002461B1B42EA0C40A5E7C1F1200658
:100500008B4022FA06F71F430EFA01F420FA06F395
:100510002EFA06FE4FEA1749234300FA01F81FFAA4
:1005200087FCBEFBF9F01C0C09FB10EE44EA0E44FC
:1005300000FB0CFEA64502FA01F209D93C1900F1B4
:10054000FF3A80F09C80A64540F2998002383C44F6
:10055000A4EB0E041FFA83FEB4FBF9F309FB13446A
:100560004EEA044403FB0CFCA44508D93C1903F1F2
:10057000FF3E80F08280A4457FD9023B3C4443EAA1
:100580000040A4EB0C04A0FB02EC64457346E1467A
:1005900062D35FD05DB1B8EB030264EB090404FAE7
:1005A00006F622FA01F31E43CC40C5E9006400219F
:1005B0004FE7B1FBF2FC010C41EA0E4180B240EA88
:1005C00001423B4638463C46B846BE462026B1FB73
:1005D000F7F1A2EB080241EA0C4166E7014618E791
:1005E00010462CE7C6F120022EFA02F3B740B140C4
:1005F00020FA02F24FEA174E0A43B3FBFEF8BCB2F0
:100600000EFB1833110C41EA034108FB04F9B0401A
:1006100089454FEA104380B23ED9791808F1FF3C72
:1006200001D289451FD8A1EB0901B1FBFEF909FBF5
:1006300004F80EFB191192B242EA0142424529D256
:10064000BA1809F1FF31C4D24245C2D2A9F1020160
:100650003A44BEE7F0459DD2BEEB02036CEB070CBB
:100660000138E14696E7A7EB09094944A8F1020CD5
:10067000B1FBFEF909FB04F8DBE773467FE7504660
:1006800066E70846FDE63B44023A33E7ACF1020C6C
:100690003B441CE749469CE7A1EB0901C446B1FB7A
:1006A000FEF909FB04F8C4E7704700BF80B400AF4F
:1006B0004A4BD3F88830494A43F47003C2F8883073
:1006C000464B1B69454A43F010031361444B1B68BA
:1006D00003F00F03062B07D8414B1B6823F00F03D1
:1006E0003F4A43F0070313603E4B1B683D4A43F00B
:1006F000010313603B4B00221A613A4B1A683949D7
:10070000394B13400B60364B1B6803F00803002B7A
:1007100007D0334B1B6823F00F03314A43F0070324
:100720001360304B00229A612E4B0022DA612D4B70
:1007300000221A622B4B2D4A9A622A4B2C4ADA620B
:10074000284B2C4A1A63274B00225A63254B294A0F
:100750009A63244B0022DA63224B264A1A64214B07
:1007600000225A641F4B1B681E4A23F48023136027
:100770001C4B00221A66204B5B6A1F4A43F48043DD
:1007800053621E4B1A681E4B1340B3F1005F02D236
:100790001C4B01221A60134BD3F8D43003F480535E
:1007A000002B13D10F4BD3F8D4300E4A43F48053AF
:1007B000C2F8D430144B43F2D2021A60094BD3F87A
:1007C000D430084A23F48053C2F8D430034B0F4A84
:1007D0009A6000BFBD465DF8047B704700ED00E005
:1007E00000200052004402587FEDF6EA00020202A7
:1007F0000000FF0180020101C00000580010005CF1
:100800000000FFFF08810051004000520000040872
:1008100080B400AF094BDB68084A23F00203D360C1
:1008200000BF064B5B6803F40053002BF9D000BFF8
:1008300000BFBD465DF8047B704700BF004802580A
:1008400080B582B000AF1A480AF05AFE00F0BEFB35
:1008500000F036F800F0BAF8164BD3F8E030154A3D
:1008600043F00073C2F8E030124BD3F8E03003F0ED
:1008700000737B607B68002001F050F800210020AD
:1008800001F066F800F040F900F0F2F80AF018F80C
:1008900000F0CCF808480AF033FE4FF40061074836
:1008A00001F021F8642000F023FC00BFF5E700BF51
:1008B000F0C104080044025810C2040800000258A5
:1008C00080B59CB000AF07F124034C2200211846EC
:1008D0000AF06BFE3B1D2022002118460AF065FE3F
:1008E000042002F0C3FA00233B60364BDB6A354A32
:1008F00023F00103D362334BDB6A03F001033B6057
:10090000314B9B69304A43F4404393612E4B9B69C2
:1009100003F440433B603B6800BF2B4B9B6903F4EF
:100920000053B3F5005FF8D10B237B624FF48033A3
:10093000BB6201233B6340237B630123BB63022330
:10094000BB640223FB6405233B6530237B650223E4
:10095000BB650523FB6502233B6608237B660023FA
:10096000BB660023FB6607F12403184602F0E8FA91
:100970000346002B01D000F04BF93F237B6000239E
:10098000BB600023FB6000233B6100237B610023ED
:10099000BB610023FB6100233B623B1D0021184625
:1009A00002F028FF0346002B01D000F031F94FF48C
:1009B00080220021002003F0D3F800BF7037BD462D
:1009C00080BD00BF000400580048025880B5B2B096
:1009D00000AF3B46C822002118460AF0E6FD4FF45E
:1009E00000224FF00003C7E900230223BB600C2361
:1009F000FB6002233B6102237B610223BB61C023B6
:100A0000FB6120233B6200237B620023C7F8A830F0
:100A10003B46184603F0E4FA0346002B01D000F0F1
:100A2000F7F800BFC837BD4680BD000080B500AFF5
:100A30000D4B0E4A1A600C4B00221A710A4B002211
:100A40005A71094B00225A61074B00229A61064BEA
:100A500001221A62044800F08BFC0346002B01D0EF
:100A600000F0D6F800BF80BD5C010024004C0258A5
:100A700080B500AF224B234A1A60214B4FF4E1327C
:100A80005A601F4B00229A601D4B0022DA601C4BFB
:100A900000221A611A4B0C225A61194B00229A61EA
:100AA000174B0022DA61164B00221A62144B002207
:100AB0005A62134B00229A62114805F0FDF8034672
:100AC000002B01D000F0A4F800210D4806F005F934
:100AD0000346002B01D000F09BF80021084806F0E7
:100AE0003AF90346002B01D000F092F8044806F0D2
:100AF000BBF80346002B01D000F08AF800BF80BD90
:100B0000800100240010014080B58AB000AF07F1D9
:100B1000140300221A605A609A60DA601A613A4B34
:100B2000D3F8E030384A43F00203C2F8E030364BE5
:100B3000D3F8E03003F002033B613B69324BD3F85A
:100B4000E030314A43F00103C2F8E0302E4BD3F8D5
:100B5000E03003F00103FB60FB682B4BD3F8E0307F
:100B6000294A43F00403C2F8E030274BD3F8E030C1
:100B700003F00403BB60BB68234BD3F8E030224A88
:100B800043F48073C2F8E0301F4BD3F8E03003F435
:100B900080737B607B681C4BD3F8E0301A4A43F0CB
:100BA0008003C2F8E030184BD3F8E03003F0800344
:100BB0003B603B6800224FF40061144800F07AFE6D
:100BC0004FF480737B610223BB610023FB61002330
:100BD0003B6200237B6207F1140319460B4800F0C7
:100BE000B9FC4FF400637B610123BB610023FB610F
:100BF00000233B6207F114031946044800F0AAFCE5
:100C000000BF2837BD4680BD00440258000002588E
:100C100080B400AF72B600BF00BFFDE780B483B000
:100C200000AF0A4BD3F8F430084A43F00203C2F88D
:100C3000F430064BD3F8F43003F002037B607B689A
:100C400000BF0C37BD465DF8047B70470044025876
:100C500080B485B000AF78607B681B680B4A934214
:100C60000ED10B4BD3F8E030094A43F40023C2F80D
:100C7000E030074BD3F8E03003F40023FB60FB685F
:100C800000BF1437BD465DF8047B7047004C025826
:100C90000044025880B5BCB000AF786007F1DC03B7
:100CA00000221A605A609A60DA601A6107F1100334
:100CB000C822002118460AF078FC7B681B68274A86
:100CC000934246D14FF001024FF00003C7E90423DD
:100CD0000023C7F8903007F11003184603F080F99D
:100CE0000346002B01D0FFF793FF1D4BD3F8F030E4
:100CF0001B4A43F01003C2F8F030194BD3F8F03020
:100D000003F01003FB60FB68154BD3F8E030144A86
:100D100043F00103C2F8E030114BD3F8E03003F0A8
:100D20000103BB60BB684FF4C063C7F8DC3002232B
:100D3000C7F8E0300023C7F8E4300023C7F8E830F4
:100D40000723C7F8EC3007F1DC031946054800F02B
:100D500001FC00BFF037BD4680BD00BF0010014060
:100D6000004402580000025880B400AF00BFFDE705
:100D700080B400AF00BFFDE780B400AF00BFFDE767
:100D800080B400AF00BFFDE780B400AF00BFFDE757
:100D900080B400AF00BFBD465DF8047B704780B4EF
:100DA00000AF00BFBD465DF8047B704780B400AF64
:100DB00000BFBD465DF8047B704780B500AF00F012
:100DC00077F900BF80BD000080B500AF024800F099
:100DD0004FFF00BF80BD00BFFC07002480B483B07C
:100DE00000AF0346FB710F4B1B680E4A43F0807344
:100DF00013600D4B1B680C4A43F00103136000BFE6
:100E00004FF060431B6803F00103002BF8D04FF054
:100E10006042FB79136000BF0C37BD465DF8047B70
:100E2000704700BFFCED00E0000E00E080B586B02A
:100E300000AFF860B9607A6000237B610AE0AFF32D
:100E400000800146BB685A1CBA60CAB21A707B693E
:100E500001337B617A697B689A42F0DB7B681846D4
:100E60001837BD4680BD80B586B000AFF860B96068
:100E70007A6000237B6109E0BB685A1CBA601B786A
:100E80001846FFF7ABFF7B6901337B617A697B68AA
:100E90009A42F1DB7B6818461837BD4680BD80B4A6
:100EA00083B000AF78604FF0FF3318460C37BD4673
:100EB0005DF8047B704780B483B000AF7860396020
:100EC0003B684FF400525A60002318460C37BD4669
:100ED0005DF8047B704780B483B000AF7860012375
:100EE00018460C37BD465DF8047B704780B485B06A
:100EF00000AFF860B9607A60002318461437BD4629
:100F00005DF8047B7047000080B586B000AF786064
:100F1000144A154BD31A7B617B693B61134B1B68E9
:100F2000002B02D1114B124A1A60104B1A687B68D1
:100F300013443A699A4207D20AF086FB03460C2210
:100F40001A604FF0FF3309E0084B1B68FB60074B4A
:100F50001A687B681344054A1360FB681846183703
:100F6000BD4680BDFCFF07240004000014020024DD
:100F700050120024DFF838D0FFF74AFCFFF796FB49
:100F80000C480D490D4A002302E0D458C4500433E4
:100F9000C4188C42F9D30A4A0A4C002301E01360BA
:100FA0000432A242FBD30AF055FBFFF749FC70471D
:100FB000FCFF0724000000244001002454C304085F
:100FC0004001002450120024FEE7000080B582B0EA
:100FD00000AF032000F08CF902F02CFE0246154B06
:100FE0009B691B0A03F00F031349CB5C03F01F033B
:100FF00022FA03F37B600F4B9B6903F00F030E4A49
:10100000D35C03F01F037A6822FA03F30B4A1360E0
:101010000B4A7B681360002000F014F80346002B95
:1010200001D0012302E0FFF7F9FD0023184608373D
:10103000BD4680BD00440258D8C204080400002404
:101040000000002480B582B000AF7860154B1B789B
:10105000002B01D1012321E0134B1A68114B1B789F
:1010600019464FF47A73B3FBF1F3B2FBF3F318466E
:1010700000F071F90346002B01D001230EE07B68DC
:101080000F2B0AD8002279684FF0FF3000F03BF9AF
:10109000064A7B681360002300E0012318460837E6
:1010A000BD4680BD0C000024000000240800002480
:1010B00080B400AF064B1B781A46064B1B681344DE
:1010C000044A136000BFBD465DF8047B704700BF53
:1010D0000C0000241802002480B400AF034B1B68EE
:1010E0001846BD465DF8047B704700BF1802002417
:1010F00080B584B000AF7860FFF7EEFFB8607B6822
:10110000FB60FB68B3F1FF3F05D00A4B1B781A4622
:10111000FB681344FB6000BFFFF7DEFF0246BB68BD
:10112000D31AFA689A42F7D800BF00BF1037BD46FD
:1011300080BD00BF0C00002480B400AF034B1B68CF
:101140001B0C1846BD465DF8047B70470010005C20
:1011500080B485B000AF78607B6803F00703FB6064
:101160000B4BDB68BB60BA684FF6FF031340BB60F4
:10117000FB681A02BB681A43064B1343BB60044A60
:10118000BB68D36000BF1437BD465DF8047B704771
:1011900000ED00E00000FA0580B400AF044BDB680E
:1011A0001B0A03F007031846BD465DF8047B704731
:1011B00000ED00E080B483B000AF0346FB80B7F9D8
:1011C0000630002B0BDBFB8803F01F020749B7F941
:1011D00006305B09012000FA02F241F8232000BF2B
:1011E0000C37BD465DF8047B704700BF00E100E0AE
:1011F00080B483B000AF03463960FB80B7F9063096
:10120000002B0ADB3B68DAB20C49B7F90630120151
:10121000D2B20B4483F800230AE03B68DAB20849F3
:10122000FB8803F00F03043B1201D2B20B441A7681
:1012300000BF0C37BD465DF8047B704700E100E05D
:1012400000ED00E080B489B000AFF860B9607A606A
:10125000FB6803F00703FB61FB69C3F10703042B81
:1012600028BF0423BB61FB690433062B02D9FB6949
:10127000033B00E000237B614FF0FF32BB6902FAC1
:1012800003F3DA43BB681A407B699A404FF0FF31A1
:101290007B6901FA03F3D9437B680B40134318467B
:1012A0002437BD465DF8047B7047000080B582B0EE
:1012B00000AF78607B68013BB3F1807F01D30123ED
:1012C0000FE00A4A7B68013B53600F214FF0FF306B
:1012D000FFF78EFF054B00229A60044B07221A602D
:1012E000002318460837BD4680BD00BF10E000E06F
:1012F00080B582B000AF78607868FFF729FF00BF43
:101300000837BD4680BD80B586B000AF0346B960E2
:101310007A60FB81FFF740FF78617A68B968786985
:10132000FFF790FF0246B7F90E3011461846FFF757
:101330005FFF00BF1837BD4680BD80B582B000AFEB
:101340000346FB80B7F906301846FFF733FF00BFAE
:101350000837BD4680BD80B582B000AF7860786840
:10136000FFF7A4FF034618460837BD4680BD0000BE
:1013700080B582B000AF78607B68002B01D101237B
:1013800054E07B685B7FDBB2002B05D17B680022D9
:101390001A777868FFF75CFC7B6802225A777B68D3
:1013A0001B79002B0CD17B681B68224A5A617B6831
:1013B0001B689A687B681B6822F018029A600CE030
:1013C0007B6899687B68DB681A46786800F034F8B7
:1013D0000346002B01D0012328E07B685B79002BBA
:1013E00005D17B681B684FF0FF321A6104E07B680F
:1013F0001B687A6812691A617B681B689B6823F016
:1014000060017B685A697B681B680A439A607B6845
:101410001B689B6823F080017B689A697B681B6866
:101420000A439A607B6801225A77002318460837DE
:10143000BD4680BDB71DC10480B487B000AFF86061
:10144000B9607A600023FB751F233B61BB6803F022
:101450000103002B02D10123FB7563E000BF3B6950
:101460005A1E3A61002B09D03B6903F01F03BA688A
:1014700022FA03F303F00103002BF0D07B68182B52
:1014800046D801A252F823F01715040811150408D4
:101490001115040811150408111504081115040884
:1014A0001115040811150408051504081115040880
:1014B0001115040811150408111504081115040864
:1014C0001115040811150408F9140408111504086D
:1014D0001115040811150408111504081115040844
:1014E0001115040811150408ED1404083B69062BB6
:1014F00013D90123FB7510E03B69072B0FD901239A
:10150000FB750CE03B690F2B0BD90123FB7508E041
:101510000123FB7506E000BF04E000BF02E000BF4E
:1015200000E000BFFB7D002B0DD1FB681B68BA6893
:101530005A61FB681B689B6823F01801FB681B68F5
:101540007A680A439A60FB7D18461C37BD465DF8F1
:10155000047B704780B489B000AF786039600023A5
:10156000FB61894B7B6194E13B681A680121FB694F
:1015700001FA03F313403B613B69002B00F08681C5
:101580003B685B6803F00303012B05D03B685B6895
:1015900003F00303022B30D17B689B68BB61FB69BE
:1015A0005B00032202FA03F3DB43BA691340BB6119
:1015B0003B68DA68FB695B0002FA03F3BA6913431C
:1015C000BB617B68BA699A607B685B68BB6101221A
:1015D000FB6902FA03F3DB43BA691340BB613B6862
:1015E0005B681B0903F00102FB6902FA03F3BA69A5
:1015F0001343BB617B68BA695A603B685B6803F060
:101600000303032B17D07B68DB68BB61FB695B00BE
:10161000032202FA03F3DB43BA691340BB613B6860
:101620009A68FB695B0002FA03F3BA691343BB6172
:101630007B68BA69DA603B685B6803F00303022BDE
:1016400023D1FB69DA087B68083253F82230BB618A
:10165000FB6903F007039B000F2202FA03F3DB434D
:10166000BA691340BB613B681A69FB6903F0070361
:101670009B0002FA03F3BA691343BB61FB69DA0802
:101680007B680832B96943F822107B681B68BB612C
:10169000FB695B00032202FA03F3DB43BA691340E0
:1016A000BB613B685B6803F00302FB695B0002FA05
:1016B00003F3BA691343BB617B68BA691A603B687C
:1016C0005B6803F44033002B00F0E0802F4BD3F82D
:1016D000F4302E4A43F00203C2F8F4302B4BD3F817
:1016E000F43003F00203FB60FB68294AFB699B08A6
:1016F000023352F82330BB61FB6903F003039B0004
:101700000F2202FA03F3DB43BA691340BB617B6823
:10171000204A934252D07B681F4A934231D07B6863
:101720001E4A93422BD07B681D4A934225D07B688A
:101730001C4A93421FD07B681B4A934219D07B6896
:101740001A4A934213D07B68194A93420DD07B68A2
:10175000184A934207D07B68174A934201D1092364
:101760002DE00A232BE0082329E0072327E00623A6
:1017700025E0052323E0042321E003231FE00223C7
:101780001DE001231BE000BF800000580044025808
:1017900000040058000002580004025800080258D3
:1017A000000C025800100258001402580018025889
:1017B000001C025800200258002402580023FA6935
:1017C00002F0030292009340BA691343BB613849A7
:1017D000FB699B080233BA6941F823204FF0B043FC
:1017E0001B68BB613B69DB43BA691340BB613B6863
:1017F0005B6803F48013002B03D0BA693B69134381
:10180000BB614FF0B042BB6913604FF0B0435B68FF
:10181000BB613B69DB43BA691340BB613B685B68F2
:1018200003F40013002B03D0BA693B691343BB6177
:101830004FF0B042BB6953607B695B68BB613B6939
:10184000DB43BA691340BB613B685B6803F4003358
:10185000002B03D0BA693B691343BB617B69BA694A
:101860005A607B691B68BB613B69DB43BA69134003
:10187000BB613B685B6803F48033002B03D0BA691B
:101880003B691343BB617B69BA691A60FB69013329
:10189000FB613B681A68FB6922FA03F3002B7FF4B3
:1018A00063AE00BF00BF2437BD465DF8047B7047C0
:1018B0000004005880B483B000AF78600B467B8092
:1018C00013467B707B78002B03D07A887B689A6103
:1018D00003E07B881A047B689A6100BF0C37BD4621
:1018E0005DF8047B704780B485B000AF78600B462C
:1018F0007B807B685B69FB607A88FB6813401A0415
:10190000FB68D9437B880B401A437B689A6100BF10
:101910001437BD465DF8047B7047000080B483B087
:1019200000AF7860084A7B68203352F82330074ABA
:10193000934201D1002300E0012318460C37BD4635
:101940005DF8047B704700BF00640258000300800C
:1019500080B483B000AF7860396006493B6843F4D7
:1019600040727B6841F8232000BF0C37BD465DF80C
:10197000047B70470064025880B586B002AF78607F
:101980007B68002B01D10123FEE07B6893F895343E
:10199000DBB2002B06D17B68002283F894247868A0
:1019A00009F016F97B68032283F895247B681B688D
:1019B000184605F082FB7B6818687B681A7C8DF8F6
:1019C000002004330ECB05F053FA0346002B05D05C
:1019D0007B68022283F895240123D5E07B681B688D
:1019E0000021184605F07AFB0346002B05D07B68E2
:1019F000022283F895240123C6E00023FB734AE00A
:101A0000FA7B79681346DB0013449B000B441533C3
:101A100001221A70FA7B79681346DB0013449B009D
:101A20000B441433FA7B1A70FA7BFB7B98B279680B
:101A30001346DB0013449B000B442E3302461A80EE
:101A4000FA7B79681346DB0013449B000B44183380
:101A500000221A70FA7B79681346DB0013449B005E
:101A60000B441C3300221A60FA7B79681346DB00B2
:101A700013449B000B44203300221A60FA7B7968E0
:101A80001346DB0013449B000B44243300221A60EE
:101A9000FB7B0133FB737B681B79FA7B9A42AFD3E4
:101AA0000023FB7344E0FA7B79681346DB001344A0
:101AB0009B000B4403F2552300221A70FA7B7968CD
:101AC0001346DB0013449B000B4403F51573FA7BAC
:101AD0001A70FA7B79681346DB0013449B000B44B1
:101AE00003F5167300221A70FA7B79681346DB003F
:101AF00013449B000B4403F5177300221A60FA7B12
:101B000079681346DB0013449B000B4403F51873FC
:101B100000221A60FA7B79681346DB0013449B00AD
:101B20000B4403F5197300221A60FB7B0133FB732E
:101B30007B681B79FA7B9A42B5D37B6818687B680F
:101B40001A7C8DF8002004330ECB05F013FB0346FE
:101B5000002B05D07B68022283F89524012313E033
:101B60007B6800225A747B68012283F895247B6885
:101B70001B7B012B02D1786801F048F97B681B6858
:101B8000184606F07AFA002318461037BD4680BD85
:101B900080B584B000AF78607B681B68FB607B68B1
:101BA00093F89434012B01D1022322E07B680122B7
:101BB00083F89424FB68DB6803F04003002B09D012
:101BC0007B685B7B012B05D1FB689B6B43F4803208
:101BD000FB689A637B681B68184605F05DFA7B68B2
:101BE0001B68184606F028FA7B68002283F89424C4
:101BF000002318461037BD4680BD80B584B000AFC5
:101C000078607B681B68FB607B6893F89434012BD9
:101C100001D1022328E07B68012283F894247B68A9
:101C20001B68184605F049FA7B681B68184606F0E1
:101C300024FA7B681B681021184605F0F9FBFB6845
:101C4000DB6803F04003002B09D07B685B7B012B32
:101C500005D1FB689B6B23F48032FB689A637B6839
:101C6000002283F89424002318461037BD4680BD17
:101C700090B58DB000AF78607B681B683B623B6AB3
:101C8000FB617B681B68184606F0ABFA0346002B25
:101C900040F0B9847B681B68184606F00FFA0346CB
:101CA000002B00F0AF84FB6903F500639B681B0AFF
:101CB000C3F30D027B68C3F8D4247B681B68184605
:101CC00006F0FCF9034603F00203022B07D17B6800
:101CD0001B685A697B681B6802F002025A617B68C4
:101CE0001B68184606F0EAF9034603F01003102BB0
:101CF00061D17B681B689A697B681B6822F01002BF
:101D00009A613B6A1B6ABB61BB6903F00F02134611
:101D1000DB0013449B0003F514737A681344043307
:101D20007B61BB6903F4F013B3F5802F24D1BA694A
:101D300047F6F0731340002B35D07B69D968BB6937
:101D40001B099BB2C3F30A039BB21A46386A06F01A
:101D500021F87B69DA68BB691B09C3F30A031A44DB
:101D60007B69DA607B695A69BB691B09C3F30A03A3
:101D70001A447B695A6116E0BB6903F4F013B3F5AA
:101D8000402F10D17B6803F29C4308221946386A21
:101D900006F000F87B695A69BB691B09C3F30A03A3
:101DA0001A447B695A617B681B689A697B681B6867
:101DB00042F010029A617B681B68184606F07EF9B3
:101DC000034603F40023B3F5002F40F0A78000235F
:101DD0007B627B681B68184606F083F9B86299E05D
:101DE000BB6A03F00103002B00F08E807B681B6848
:101DF0007A6AD2B21146184606F0A7F938613B69F3
:101E000003F00103002B0CD07B6A5A01FB691344D9
:101E100003F530631A4601239360796A786800F00D
:101E20006FFE3B6903F00803002B0CD07B6A5A015C
:101E3000FB69134403F530631A4608239360796AFB
:101E4000786800F045FF3B6903F01003002B08D0D1
:101E50007B6A5A01FB69134403F530631A46102369
:101E600093603B6903F00203002B30D03B6A5B694F
:101E700003F08003802B09D1FB6903F500635B68E5
:101E8000FA6902F5006243F4806353607A6A13468C
:101E9000DB0013449B0003F514737A681344043386
:101EA0007B617B69DB78012B08D17B690022DA70CA
:101EB0007B6ADBB21946786809F062F87B6A5A01DE
:101EC000FB69134403F530631A46022393603B69B0
:101ED00003F02003002B08D07B6A5A01FB691344EE
:101EE00003F530631A46202393603B6903F40053E3
:101EF000002B09D07B6A5A01FB69134403F5306358
:101F00001A464FF4005393607B6A01337B62BB6ACD
:101F10005B08BB62BB6A002B7FF462AF7B681B6807
:101F2000184606F0CBF8034603F48023B3F5802F60
:101F300040F0DB807B681B68184606F0ECF8B8625E
:101F400000237B62CDE0BB6A03F00103002B00F0AD
:101F5000C2807B681B687A6AD2B21146184606F0C6
:101F600012F938613B6903F00103002B57D07B6AFB
:101F700003F00F03012202FA03F3FB60FB6903F590
:101F800000635A6BFB68DB43F96901F5006113409C
:101F90004B637B6A5A01FB69134403F510631A46CD
:101FA000012393607B689B79012B32D179687A6A2F
:101FB0001346DB0013449B000B44203319687868F8
:101FC0007A6A1346DB0013449B0003441C331B68EE
:101FD000194478687A6A1346DB0013449B00034473
:101FE000203319607B6A002B13D179687A6A134613
:101FF000DB0013449B000B4424331B68002B08D1E7
:102000007B6818687B6803F29C431A46012106F03E
:102010001BF97B6ADBB21946786808F02CFF3B6934
:1020200003F00803002B08D07B6A5A01FB691344B4
:1020300003F510631A46082393603B6903F010030D
:10204000002B08D07B6A5A01FB69134403F5106327
:102050001A46102393603B6903F04003002B08D01D
:102060007B6A5A01FB69134403F510631A46402347
:1020700093603B6903F00203002B23D0796A386A2E
:1020800005F0D6F97A6A1346DB0013449B0010333F
:102090007A68134404337B617B69DB78012B08D1B8
:1020A0007B690022DA707B6ADBB21946786808F037
:1020B00079FF7B6A5A01FB69134403F510631A46E2
:1020C000022393603B6903F08003002B03D0796AFD
:1020D000786800F088FC7B6A01337B62BB6A5B082E
:1020E000BB62BB6A002B7FF42EAF7B681B6818466F
:1020F00005F0E4FF034603F00043B3F1004F22D1A3
:10210000FB6903F500635B68FA6902F5006223F07E
:10211000010353607B6893F8CC34012B08D17B68B2
:10212000002283F8CC240021786800F093FE02E0BE
:10213000786808F017FF7B681B685A697B681B6822
:1021400002F000425A617B681B68184605F0B6FF32
:10215000034603F40063B3F5006F12D1FB6903F586
:1021600000639B6803F00103012B02D1786808F03B
:10217000D3FE7B681B685A697B681B6802F40062A7
:102180005A617B681B68184605F098FF034603F008
:102190000063B3F1006F21D17B681B685A697B68CB
:1021A0001B6802F000625A617B6893F8CC34002B04
:1021B00011D17B68012283F8CC247B681B685B6D9E
:1021C0009B0803F00F027B68C3F8D02401217868D4
:1021D00000F040FE02E0786808F09EFE7B681B6815
:1021E000184605F06BFF034603F48053B3F5805F98
:1021F00040F0B780FB6903F500635B68FA6902F59C
:10220000006223F0010353607B681B6810211846AD
:1022100005F00EF90023FB6246E0FB6A5A01FB69F8
:10222000134403F510631A464FF67F339360FB6A3D
:102230005A01FB69134403F510631B68FA6A5101E4
:10224000FA690A4402F5106223F400131360FB6A72
:102250005A01FB69134403F530631A464FF67F3386
:102260009360FB6A5A01FB69134403F530631B68F2
:10227000FA6A5101FA690A4402F5306223F4001344
:102280001360FB6A5A01FB69134403F530631B6852
:10229000FA6A5101FA690A4402F5306243F00063B8
:1022A0001360FB6A0133FB627B681B791A46FB6A89
:1022B0009342B2D3FB6903F50063DB69FA6902F567
:1022C000006243F00113D3617B68DB7B002B16D0E7
:1022D000FB6903F50063D3F88430FA6902F5006204
:1022E00043F00B03C2F88430FB6903F500635B6CB9
:1022F000FA6902F5006243F00B03536415E0FB69D1
:1023000003F500635A69FB6903F50063194642F25D
:102310002B0313434B61FB6903F500631B69FA69E7
:1023200002F5006243F00B031361FB6903F50063E0
:102330001B68FA6902F5006223F4FE6313607B6890
:1023400018687B6899797B6803F29C431A4605F00C
:102350007BFF7B681B685A697B681B6802F48052AC
:102360005A617B681B68184605F0A8FE034603F413
:102370000053B3F5005F23D17B681B68184605F056
:102380003FFF7B681B68184605F0CBF803461A46EA
:102390007B68DA717B681C6801F0C6FD01467B68CA
:1023A000DB791A46204604F0D5FD786808F08BFDED
:1023B0007B681B685A697B681B6802F400525A618B
:1023C0007B681B68184605F079FE034603F0080396
:1023D000082B0AD1786808F068FD7B681B685A6989
:1023E0007B681B6802F008025A617B681B6818460C
:1023F00005F064FE034603F08003802B23D13B6A83
:102400009B6923F080023B6A9A6101237B6214E09E
:1024100079687A6A1346DB0013449B000B4403F28D
:1024200057231B78012B05D17B6ADBB219467868EC
:1024300000F0A8FA7B6A01337B627B681B791A463D
:102440007B6A9342E4D37B681B68184605F036FE2E
:10245000034603F48013B3F5801F3CD101237B6254
:102460002BE07B6A5A01FB69134403F510631B6878
:10247000BB6179687A6A1346DB0013449B000B4406
:1024800018331B78012B15D1BB69002B12DA796840
:102490007A6A1346DB0013449B000B441733012276
:1024A0001A707B6ADBB263F07F03DBB2194678688F
:1024B00000F068FA7B6A01337B627B681B791A46FD
:1024C0007B6A9342CDD37B681B685A697B681B6823
:1024D00002F480125A617B681B68184605F0EEFD15
:1024E000034603F40013B3F5001F56D101237B62AA
:1024F00045E07B6A5A01FB69134403F530631B68AE
:10250000BB6179687A6A1346DB0013449B000B4475
:1025100003F516731B78012B2ED1BB69002B2BDA28
:10252000BB691A0C7B68D3F8D434534003F0010321
:10253000002B21D179687A6A1346DB0013449B0093
:102540000B4403F2572301221A703B6A9B6943F044
:1025500080023B6A9A613B6A5B6903F08003002B4F
:102560000AD1FB6903F500635B68FA6902F5006252
:1025700043F40073536008E07B6A01337B627B683D
:102580001B791A467B6A9342B3D37B681B685A69EE
:102590007B681B6802F400125A617B681B6818464E
:1025A00005F08CFD034603F08043B3F1804F0AD160
:1025B000786808F009FD7B681B685A697B681B68AE
:1025C00002F080425A617B681B68184605F076FD70
:1025D000034603F00403042B15D17B681B685B687A
:1025E000BB61BB6903F00403002B02D0786808F0DC
:1025F000F9FC7B681B6859687B681B68BA690A43E9
:102600005A6000E000BF3437BD4690BD80B582B04F
:1026100000AF78600B46FB707B6893F89434012B15
:1026200001D1022312E07B68012283F894247B68A5
:10263000FA785A747B681B68FA781146184605F0D8
:10264000D5FC7B68002283F89424002318460837C1
:10265000BD4680BD80B584B000AF786008461146A5
:102660001A460346FB700B463B801346BB700023A3
:10267000FB7297F90330002B0FDAFB7803F00F029F
:102680001346DB0013449B0010337A681344043371
:10269000FB60FB6801225A700FE0FB7803F00F0229
:1026A0001346DB0013449B0003F514737A6813444C
:1026B0000433FB60FB6800225A70FB7803F00F03C1
:1026C000DAB2FB681A703B88C3F30A02FB689A60AF
:1026D000FB68BA781A71FB685B78002B04D0FB6842
:1026E0001B781A46FB685A83BB78022B02D1FB6821
:1026F00000225A717B6893F89434012B01D1022394
:102700000EE07B68012283F894247B681B68F968DB
:10271000184604F02BFF7B68002283F89424FB7A90
:1027200018461037BD4680BD80B586B000AFF86052
:102730007A603B600B46FB72FB7A03F00F02134694
:10274000DB0013449B0003F51473FA68134404334D
:102750007B617B697A68DA607B693A681A617B69B8
:1027600000225A617B6900225A70FB7A03F00F0342
:10277000DAB27B691A70FB689B79012B02D17A6807
:102780007B69DA61FB681868FB689B791A4679698E
:1027900004F074FF002318461837BD4680BD80B58D
:1027A00086B000AFF8607A603B600B46FB72FB7A44
:1027B00003F00F021346DB0013449B001033FA684A
:1027C000134404337B617B697A68DA607B693A6819
:1027D0001A617B6900225A617B6901225A70FB7A77
:1027E00003F00F03DAB27B691A70FB689B79012B47
:1027F00002D17A687B69DA61FB681868FB689B79AB
:102800001A46796904F03AFF002318461837BD4686
:1028100080BD80B584B000AF78600B46FB70FB785C
:1028200003F00F037A681279934201D901234FE034
:1028300097F90330002B0FDAFB7803F00F021346F1
:10284000DB0013449B0010337A6813440433FB60AD
:10285000FB6801225A700DE0FA781346DB0013443E
:102860009B0003F514737A6813440433FB60FB6820
:1028700000225A70FB6801229A70FB7803F00F0364
:10288000DAB2FB681A707B6893F89434012B01D19B
:1028900002231DE07B68012283F894247B681B6877
:1028A000F968184605F0CEFAFB7803F00F03002B09
:1028B00009D17B6818687B6899797B6803F29C432F
:1028C0001A4605F0C1FC7B68002283F8942400239B
:1028D00018461037BD4680BD80B584B000AF786023
:1028E0000B46FB70FB7803F00F037A681279934272
:1028F00001D9012342E097F90330002B0FDAFB786E
:1029000003F00F021346DB0013449B0010337A6878
:1029100013440433FB60FB6801225A700FE0FB781C
:1029200003F00F021346DB0013449B0003F51473FE
:102930007A6813440433FB60FB6800225A70FB681A
:1029400000229A70FB7803F00F03DAB2FB681A706A
:102950007B6893F89434012B01D102230EE07B684D
:10296000012283F894247B681B68F968184605F0F7
:10297000D7FA7B68002283F8942400231846103786
:10298000BD4680BD80B584B000AF78600B46FB705B
:1029900097F90330002B0CDAFB7803F00F02134693
:1029A000DB0013449B0010337A6813440433FB604C
:1029B0000CE0FB7803F00F021346DB0013449B008E
:1029C00003F514737A6813440433FB607B681B6857
:1029D000F968184605F0F6F80346FB72FB7A1846CC
:1029E0001037BD4680BD80B58AB002AF78603960CF
:1029F0007B681B687B617B693B613A681346DB003F
:102A000013449B0010337A6813440433FB60FB6863
:102A10005A69FB681B699A4201D901236BE0FB6884
:102A20001A69FB685B69D31AFB61FB689B68FA69EA
:102A30009A4202D9FB689B68FB61FB6903339B08E0
:102A4000BB612AE0FB681A69FB685B69D31AFB610A
:102A5000FB689B68FA699A4202D9FB689B68FB6134
:102A6000FB6903339B08BB61FB68D9683B68DAB23A
:102A7000FB6998B27B689B7900930346786905F0FF
:102A80004BF9FB68DA68FB691A44FB68DA60FB689B
:102A90005A69FB691A44FB685A613B685A013B69F1
:102AA000134403F510639B699BB2BA699A4209D833
:102AB000FB685A69FB681B699A4203D2FB681B6971
:102AC000002BBFD1FB681A69FB685B699A4211D879
:102AD0003B6803F00F03012202FA03F3BB603B697A
:102AE00003F500635A6BBB68DB43396901F500618C
:102AF00013404B63002318462037BD4680BD0000BD
:102B000080B588B000AF786039607B681B68FB6176
:102B1000FB69BB61FB693C3304331B687B613B6829
:102B20005A01BB69134403F530639B683B617B68C2
:102B30009B79012B7BD13B6903F00803002B15D057
:102B40007B69614A934240F2B9803B6903F40043D8
:102B5000002B00F0B3803B685A01BB69134403F5B6
:102B600030631A464FF400439360A7E03B6903F0DB
:102B70002003002B09D03B685A01BB69134403F5BD
:102B800030631A462023936098E03B6903F02803E2
:102B9000002B40F093807B694B4A93420FD93B69ED
:102BA00003F40043002B0AD03B685A01BB6913446D
:102BB00003F530631A464FF4004393607EE03A68B1
:102BC0001346DB0013449B0003F514737A68134427
:102BD0000433FB60FB681A6A3B685901BB690B440C
:102BE00003F530631B69C3F31203D21AFB685A6101
:102BF0003B68002B14D1FB681B69002B09D17B6853
:102C000018687B6803F29C431A46012105F01CFBFF
:102C100006E0FB68DA68FB685B691A44FB68DA6007
:102C20003B68DBB21946786808F00AF946E07B6930
:102C3000264A934224D13B6903F40043002B0AD077
:102C40003B685A01BB69134403F530631A464FF4DD
:102C50000043936032E03B6903F02003002B08D06F
:102C60003B685A01BB69134403F530631A462023BD
:102C700093603B68DBB21946786808F0E1F81DE024
:102C80003B68002B14D179683A681346DB00134483
:102C90009B000B4403F519731B68002B08D17B685C
:102CA00018687B6803F29C431A46002105F0CCFAB1
:102CB0003B68DBB21946786808F0C2F80023184672
:102CC0002037BD4680BD00BF0A30544F0A31544FF3
:102CD00080B586B000AF786039607B681B687B6127
:102CE0007B693B617B693C3304331B68FB603B6859
:102CF0005A013B69134403F530639B68BB60FB6872
:102D0000154A93420ED9BB6803F40043002B09D047
:102D10003B685A013B69134403F530631A464FF48C
:102D200000439360786808F079F8FB680A4A934298
:102D30000CD97B689B79012B08D17B6818687B686C
:102D400003F29C431A46012105F07EFA002318463F
:102D50001837BD4680BD00BF0A30544F80B485B0DF
:102D600000AF78600B46FB7013463B807B681B68A6
:102D70005B6ABB60FB78002B07D13B8819047B683A
:102D80001B68BA680A439A6228E07B681B689B6AE2
:102D90001B0CBA681344BB600023FB730DE07B6817
:102DA0001A68FB7B40339B0013445B681B0CBA68BA
:102DB0001344BB60FB7B0133FB73FA7BFB78013B65
:102DC0009A42ECD33B8818047B681968FB78013B76
:102DD000BA68024340339B000B445A6000231846F4
:102DE0001437BD465DF8047B704780B483B000AFF4
:102DF00078600B467B807B681B687A885A62002368
:102E000018460C37BD465DF8047B704780B485B02A
:102E100000AF78607B681B68FB607B680122C3F8A9
:102E2000D8247B68002283F8CC24FB689B6943F09C
:102E30000062FB689A61FB685A6D054B1343FA68A0
:102E40005365002318461437BD465DF8047B704770
:102E50000300001080B483B000AF78600B46FB70B5
:102E600000BF0C37BD465DF8047B704780B584B069
:102E700000AF7860294BDB6803F00703062B0AD00C
:102E8000264BDB6803F03F037A689A4201D00123A6
:102E900040E000233EE0214BDB6823F03F021F4966
:102EA0007B681343CB60FEF717F9F86009E0FEF783
:102EB00013F90246FB68D31AB3F57A7F01D90123CF
:102EC00028E0164B5B6803F40053B3F5005FEED1C6
:102ED0007B681E2B08D07B682E2B05D07B681D2BB2
:102EE00002D07B682D2B14D1FEF7F6F8F86009E0CC
:102EF000FEF7F2F80246FB68D31AB3F57A7F01D9E0
:102F0000012307E0054BDB6803F48033B3F5803F12
:102F1000EED1002318461037BD4680BD0048025848
:102F200080B400AF054BDB68044A43F08073D36084
:102F300000BFBD465DF8047B704700BF00480258E3
:102F400080B58CB000AF78607B68002B02D1012384
:102F500000F048BC7B681B6803F00103002B00F005
:102F60008880994B1B6903F03803FB62964B9B6A80
:102F7000BB62FB6A102B07D0FB6A182B11D1BB6A0E
:102F800003F00303022B0CD18F4B1B6803F40033B7
:102F9000002B6DD07B685B68002B69D1012300F0AA
:102FA00021BC7B685B68B3F5803F06D1864B1B680C
:102FB000854A43F4803313602EE07B685B68002B06
:102FC0000CD1814B1B68804A23F4803313607E4B05
:102FD0001B687D4A23F4802313601DE07B685B68D7
:102FE000B3F5A02F0CD1784B1B68774A43F48023AC
:102FF0001360754B1B68744A43F4803313600BE015
:10300000714B1B68704A23F4803313606E4B1B684E
:103010006D4A23F4802313607B685B68002B13D018
:10302000FEF75AF8786208E0FEF756F802467B6A27
:10303000D31A642B01D90323D4E3634B1B6803F435
:103040000033002BF0D014E0FEF746F8786208E079
:10305000FEF742F802467B6AD31A642B01D9032398
:10306000C0E3594B1B6803F40033002BF0D100E0A0
:1030700000BF7B681B6803F00203002B00F0CA80CE
:10308000514B1B6903F038033B624F4B9B6AFB615A
:103090003B6A002B07D03B6A182B56D1FB6903F023
:1030A0000303002B51D1484B1B6803F00403002B92
:1030B00005D07B68DB68002B01D1012392E3424BF2
:1030C0001B6823F019027B68DB683F4913430B60E0
:1030D000FEF702F8786208E0FDF7FEFF02467B6A21
:1030E000D31A022B01D903237CE3374B1B6803F06F
:1030F0000403002BF0D0FEF71FF8034641F2030251
:10310000934217D87B681B69402B08D12E4B5B6814
:1031100023F47C332C4A43F4003353607AE02A4B87
:103120005B6823F47C327B681B691B0326491343CD
:103130004B606FE0244B5B6823F0FE427B681B69A9
:103140001B06214913434B6064E07B68DB68002B5E
:1031500047D01D4B1B6823F019027B68DB681A49B6
:1031600013430B60FDF7B8FF786208E0FDF7B4FF8A
:1031700002467B6AD31A022B01D9032332E3124B96
:103180001B6803F00403002BF0D0FDF7D5FF0346C6
:1031900041F20302934219D87B681B69402B08D186
:1031A000094B5B6823F47C33074A43F400335360D4
:1031B00030E0054B5B6823F47C327B681B691B03A2
:1031C000014913434B6025E0004402589A4B5B6869
:1031D00023F0FE427B681B691B06974913434B6033
:1031E00018E0954B1B68944A23F001031360FDF728
:1031F00073FF786208E0FDF76FFF02467B6AD31A1F
:10320000022B01D90323EDE28B4B1B6803F004036F
:10321000002BF0D17B681B6803F01003002B00F03B
:10322000A980854B1B6903F03803BB61824B9B6A05
:103230007B61BB69082B07D0BB69182B3AD17B692E
:1032400003F00303012B35D17B4B1B6803F4807320
:10325000002B05D07B68DB69802B01D00123C1E204
:10326000FDF76AFF034641F20302934217D87B68D9
:103270001B6A202B08D1704B5B6823F0F8436E4A21
:1032800043F08043536075E06B4B5B6823F0F8427A
:103290007B681B6A9B06684913434B606AE0664B78
:1032A000DB6823F07C527B681B6A1B066249134370
:1032B000CB605FE07B68DB69002B42D05E4B1B6814
:1032C0005D4A43F080031360FDF706FF786208E073
:1032D000FDF702FF02467B6AD31A022B01D90323B2
:1032E00080E2554B1B6803F48073002BF0D0FDF790
:1032F00023FF034641F20302934217D87B681B6AFF
:10330000202B08D14C4B5B6823F0F8434A4A43F02A
:10331000804353602EE0484B5B6823F0F8427B68A3
:103320001B6A9B06444913434B6023E0424BDB6816
:1033300023F07C527B681B6A1B063F491343CB601A
:1033400018E03D4B1B683C4A23F080031360FDF7F7
:10335000C3FE786208E0FDF7BFFE02467B6AD31A1F
:10336000022B01D903233DE2334B1B6803F4807326
:10337000002BF0D17B681B6803F00803002B36D0CC
:103380007B685B69002B19D02B4B5B6F2A4A43F09B
:1033900001035367FDF7A0FE786208E0FDF79CFE8D
:1033A00002467B6AD31A022B01D903231AE2224B6D
:1033B0005B6F03F00203002BF0D018E01E4B5B6F35
:1033C0001D4A23F001035367FDF786FE786208E08B
:1033D000FDF782FE02467B6AD31A022B01D9032332
:1033E00000E2154B5B6F03F00203002BF0D17B680A
:1033F0001B6803F02003002B39D07B689B69002BEE
:103400001CD00D4B1B680C4A43F480531360FDF72E
:1034100063FE786208E0FDF75FFE02467B6AD31A1E
:10342000022B01D90323DDE1034B1B6803F4005396
:10343000002BF0D01BE000BF004402589B4B1B68E0
:103440009A4A23F480531360FDF746FE786208E041
:10345000FDF742FE02467B6AD31A022B01D90323F1
:10346000C0E1924B1B6803F40053002BF0D17B6842
:103470001B6803F00403002B00F081808C4B1B6859
:103480008B4A43F480731360FDF726FE786208E0F0
:10349000FDF722FE02467B6AD31A642B01D903236F
:1034A000A0E1834B1B6803F48073002BF0D07B6892
:1034B0009B68012B06D17D4B1B6F7C4A43F00103B7
:1034C00013672DE07B689B68002B0CD1774B1B6F3B
:1034D000764A23F001031367744B1B6F734A23F082
:1034E000040313671CE07B689B68052B0CD16F4BB2
:1034F0001B6F6E4A43F0040313676C4B1B6F6B4AE0
:1035000043F0010313670BE0684B1B6F674A23F01E
:1035100001031367654B1B6F644A23F004031367B1
:103520007B689B68002B15D0FDF7D6FD78620AE01A
:10353000FDF7D2FD02467B6AD31A41F288329342EC
:1035400001D903234EE1594B1B6F03F00203002BFB
:10355000EED014E0FDF7C0FD78620AE0FDF7BCFD97
:1035600002467B6AD31A41F28832934201D903237F
:1035700038E14E4B1B6F03F00203002BEED17B684A
:103580005B6A002B00F02D81484B1B6903F0380368
:10359000182B00F0BD807B685B6A022B40F09E8098
:1035A000424B1B68414A23F080731360FDF794FD82
:1035B000786208E0FDF790FD02467B6AD31A022B81
:1035C00001D903230EE1394B1B6803F00073002B74
:1035D000F0D1364B9A6A374B13407A68916A7A6811
:1035E000D26A12010A43314913438B627B681B6B19
:1035F000013BC3F308027B685B6B013B5B029BB240
:103600001A437B689B6B013B1B0403F4FE031A43C4
:103610007B68DB6B013B1B0603F0FE43234913432E
:103620000B63224BDB6A214A23F00103D3621F4B59
:103630005A6B214B13407A68926CD2001B4913439A
:103640004B631A4BDB6A23F00C027B681B6C174937
:103650001343CB62154BDB6A23F002027B685B6C81
:1036600012491343CB62114BDB6A104A43F4803397
:10367000D3620E4BDB6A0D4A43F40033D3620B4B2B
:10368000DB6A0A4A43F48023D362084BDB6A074AA9
:1036900043F00103D362054B1B68044A43F0807377
:1036A0001360FDF719FD786211E000BF0044025875
:1036B000004802580CFCFFFF0700FFFFFDF70CFD60
:1036C00002467B6AD31A022B01D903238AE0474BB7
:1036D0001B6803F00073002BF0D082E0434B1B68A3
:1036E000424A23F080731360FDF7F6FC786208E02D
:1036F000FDF7F2FC02467B6AD31A022B01D90323A1
:1037000070E03A4B1B6803F00073002BF0D168E0C7
:10371000364B9B6A3B61354B1B6BFB607B685B6A7E
:10372000012B31D03B6903F003027B689B6A9A420C
:103730002AD13B691B0903F03F027B68DB6A9A428E
:1037400022D1FB68C3F308027B681B6B013B9A42E2
:103750001AD1FB685B0A03F07F027B685B6B013B5D
:103760009A4211D1FB681B0C03F07F027B689B6BB4
:10377000013B9A4208D1FB681B0E03F07F027B6875
:10378000DB6B013B9A4201D001232BE0174B5B6BB3
:10379000DB08C3F30C033B617B689B6C3A699A427C
:1037A0001FD0124BDB6A114A23F00103D362FDF7ED
:1037B00093FC786200BFFDF78FFC02467B6A934260
:1037C000F9D00A4B5A6B0A4B13407A68926CD200BC
:1037D000064913434B63054BDB6A044A43F001037C
:1037E000D362002318463037BD4680BD00440258DE
:1037F0000700FFFF80B586B000AF786039607B6856
:10380000002B01D101239CE18A4B1B6803F00F03BD
:103810003A689A4210D9874B1B6823F00F028549FA
:103820003B6813430B60834B1B6803F00F033A683C
:103830009A4201D0012384E17B681B6803F00403F2
:10384000002B10D07B681A697B4B9B6903F07003D7
:103850009A4208D9784B9B6923F070027B681B69F8
:10386000754913438B617B681B6803F00803002BC9
:1038700010D07B685A69704BDB6903F070039A4281
:1038800008D96D4BDB6923F070027B685B696A497C
:103890001343CB617B681B6803F01003002B10D02F
:1038A0007B689A69644BDB6903F4E0639A4208D948
:1038B000614BDB6923F4E0627B689B695E491343DB
:1038C000CB617B681B6803F02003002B10D07B6862
:1038D000DA69594B1B6A03F070039A4208D9564BB8
:1038E0001B6A23F070027B68DB69534913430B6248
:1038F0007B681B6803F00203002B10D07B68DA683A
:103900004D4B9B6903F00F039A4208D94A4B9B69C0
:1039100023F00F027B68DB68474913438B617B68A8
:103920001B6803F00103002B55D0434B9B6923F424
:1039300070627B689B68404913438B617B685B685E
:10394000022B07D13C4B1B6803F40033002B21D121
:103950000123F6E07B685B68032B07D1364B1B68BD
:1039600003F00073002B15D10123EAE07B685B684C
:10397000012B07D1304B1B6803F48073002B09D156
:103980000123DEE02C4B1B6803F00403002B01D164
:103990000123D6E0284B1B6923F007027B685B6894
:1039A000254913430B61FDF797FB78610AE0FDF7AA
:1039B00093FB02467B69D31A41F28832934201D9C4
:1039C0000323BEE01C4B1B6903F038027B685B6875
:1039D000DB009A42EBD17B681B6803F00203002BEB
:1039E00010D07B68DA68144B9B6903F00F039A428E
:1039F00008D2114B9B6923F00F027B68DB680E49EC
:103A000013438B610B4B1B6803F00F033A689A4218
:103A100014D2084B1B6823F00F0206493B6813437E
:103A20000B60044B1B6803F00F033A689A4205D001
:103A3000012386E000200052004402587B681B6886
:103A400003F00403002B10D07B681A693F4B9B697D
:103A500003F070039A4208D23C4B9B6923F070023A
:103A60007B681B69394913438B617B681B6803F0D2
:103A70000803002B10D07B685A69344BDB6903F0D4
:103A800070039A4208D2314BDB6923F070027B68E5
:103A90005B692E491343CB617B681B6803F01003FD
:103AA000002B10D07B689A69284BDB6903F4E06334
:103AB0009A4208D2254BDB6923F4E0627B689B695C
:103AC00022491343CB617B681B6803F02003002B62
:103AD00010D07B68DA691D4B1B6A03F070039A42B1
:103AE00008D21A4B1B6A23F070027B68DB69174906
:103AF00013430B6200F09EF80246144B9B691B0AAD
:103B000003F00F031249CB5C03F01F0322FA03F307
:103B10003B610E4B9B6903F00F030D4AD35C03F02E
:103B20001F033A6922FA03F30A4A13600A4A3B69FF
:103B300013600A4B1B681846FDF784FA0346FB73B3
:103B4000FB7B18461837BD4680BD00BF00440258B5
:103B5000D8C2040804000024000000240800002447
:103B600080B58CB000AFF860B9607A60FB68002B5C
:103B70002AD12D4BD3F8E0302B4A43F00103C2F891
:103B8000E030294BD3F8E03003F00103BB61BB699F
:103B90004FF48073FB6102233B620323BB6200236B
:103BA0007B620023FB6207F11C0319461F48FDF7E7
:103BB000D1FC1D4B1B6923F0FE72B9687B680B4377
:103BC000194913430B612AE0174BD3F8E030164A2A
:103BD00043F00403C2F8E030134BD3F8E03003F0B5
:103BE00004037B617B694FF40073FB6102233B623A
:103BF0000323BB6200237B620023FB6207F11C03EB
:103C000019460B48FDF7A6FC074B1B6923F07E42C3
:103C10007B68D901BB680B43034913430B6100BFA9
:103C20003037BD4680BD00BF004402580000025836
:103C30000008025880B489B000AFB34B1B6903F091
:103C40003803182B00F2558101A252F823F000BF6F
:103C5000B53C0408F33E0408F33E0408F33E0408B0
:103C6000F33E0408F33E0408F33E0408F33E040860
:103C7000DB3C0408F33E0408F33E0408F33E04086A
:103C8000F33E0408F33E0408F33E0408F33E040840
:103C9000E13C0408F33E0408F33E0408F33E040844
:103CA000F33E0408F33E0408F33E0408F33E040820
:103CB000E73C0408944B1B6803F02003002B09D059
:103CC000914B1B68DB0803F00303904A22FA03F3CD
:103CD000BB6111E18D4BBB610EE18D4BBB610BE113
:103CE0008C4BBB6108E1884B9B6A03F003037B614B
:103CF000854B9B6A1B0903F03F033B61824BDB6AE8
:103D000003F00103FB60804B5B6BDB08C3F30C0328
:103D1000FA6802FB03F307EE903AF8EE677AC7ED14
:103D2000027A3B69002B00F0E1807B69022B00F0F6
:103D300083807B69022B00F2A1807B69002B03D07A
:103D40007B69012B56D099E06F4B1B6803F0200371
:103D5000002B2DD06C4B1B68DB0803F003036B4A70
:103D600022FA03F37B607B6807EE903AF8EE676A0D
:103D70003B6907EE903AF8EE677A86EEA77A624BD7
:103D80001B6BC3F3080307EE903AF8EE676A97EDF2
:103D9000026ADFED615AC6EE257A76EEA77AF7EE73
:103DA000006A77EEA67A67EE277AC7ED077A87E092
:103DB0003B6907EE903AF8EE677ADFED586A86EED7
:103DC000A77A514B1B6BC3F3080307EE903AF8EE4A
:103DD000676A97ED026ADFED505AC6EE257A76EEF5
:103DE000A77AF7EE006A77EEA67A67EE277AC7ED34
:103DF000077A65E03B6907EE903AF8EE677ADFED07
:103E0000486A86EEA77A404B1B6BC3F3080307EEA4
:103E1000903AF8EE676A97ED026ADFED3F5AC6EE18
:103E2000257A76EEA77AF7EE006A77EEA67A67EE45
:103E3000277AC7ED077A43E03B6907EE903AF8EE40
:103E4000677ADFED386A86EEA77A2F4B1B6BC3F3D8
:103E5000080307EE903AF8EE676A97ED026ADFED25
:103E60002E5AC6EE257A76EEA77AF7EE006A77EE3E
:103E7000A67A67EE277AC7ED077A21E03B6907EE5D
:103E8000903AF8EE677ADFED266A86EEA77A1E4B47
:103E90001B6BC3F3080307EE903AF8EE676A97EDE1
:103EA000026ADFED1D5AC6EE257A76EEA77AF7EEA6
:103EB000006A77EEA67A67EE277AC7ED077A00BF29
:103EC000114B1B6B5B0A03F07F0301333B603B68C4
:103ED00007EE903AB8EE677AD7ED076AC6EE877AB2
:103EE000FCEEE77A17EE903ABB6105E00023BB6178
:103EF00002E0074BBB6100BFBB6918462437BD46D3
:103F00005DF8047B704700BF004402580090D00366
:103F100000093D0040787D01000000460024744CFB
:103F20000024744A20BCBE4B80B582B000AFFFF7BE
:103F300081FE0246104B9B691B0A03F00F030F49D9
:103F4000CB5C03F01F0322FA03F37B600A4B9B69EF
:103F500003F00F03094AD35C03F01F037A6822FAC7
:103F600003F3074A1360074A7B681360044B1B681E
:103F700018460837BD4680BD00440258D8C2040820
:103F8000040000240000002480B500AFFFF7CCFF40
:103F90000246064BDB691B0903F007030449CB5CAF
:103FA00003F01F0322FA03F3184680BD00440258B1
:103FB000D8C2040880B500AFFFF7B6FF0246064B33
:103FC000DB691B0A03F007030449CB5C03F01F0302
:103FD00022FA03F3184680BD00440258D8C20408F0
:103FE0002DE9B04FCCB000AFC7F81C01002387F813
:103FF0002F31002387F82E31D7F81C31D3E9002365
:1040000002F00064002554EA050349D0D7F81C31BA
:10401000DB6EB3F5401F2FD0B3F5401F28D8B3F5A2
:10402000001F1AD0B3F5001F22D8002B03D0B3F520
:10403000801F07D01CE0B84BDB6AB74A43F400335B
:10404000D3621AE0D7F81C3108330221184601F078
:10405000CFFC034687F82F310FE0D7F81C31283307
:104060000221184601F076FD034687F82F3104E05F
:10407000012387F82F3100E000BF97F82F31002B84
:104080000AD1A54B1B6D23F44011D7F81C31DB6E10
:10409000A14A0B43136503E097F82F3187F82E31BF
:1040A000D7F81C31D3E9002302F480784FF00009DF
:1040B00058EA090347D0D7F81C31DB6D042B2AD806
:1040C00001A252F823F000BFDD400408EB400408D1
:1040D000014104081F4104081F4104088E4BDB6A9C
:1040E0008D4A43F40033D3621AE0D7F81C31083309
:1040F0000021184601F07CFC034687F82F310FE0C1
:10410000D7F81C3128330021184601F023FD03465F
:1041100087F82F3104E0012387F82F3100E000BF3A
:1041200097F82F31002B0AD17B4B1B6D23F0070131
:10413000D7F81C31DB6D784A0B43136503E097F821
:104140002F3187F82E31D7F81C31D3E9002302F440
:10415000007A4FF0000B5AEA0B034CD0D7F81C3111
:104160001B6EB3F5807F30D0B3F5807F29D8C02B8C
:104170002DD0C02B25D8802B18D0802B21D8002BF8
:1041800002D0402B07D01CE0634BDB6A624A43F449
:104190000033D3621CE0D7F81C31083300211846E5
:1041A00001F026FC034687F82F3111E0D7F81C31C7
:1041B00028330021184601F0CDFC034687F82F3143
:1041C00006E0012387F82F3102E000BF00E000BFC6
:1041D00097F82F31002B0AD14F4B1B6D23F4E07160
:1041E000D7F81C311B6E4C4A0B43136503E097F85C
:1041F0002F3187F82E31D7F81C31D3E9002302F490
:104200008063C7F810310023C7F81431D7E944128E
:104210000B46134353D0D7F81C31D3F8AC30B3F569
:10422000000F35D0B3F5000F2ED8B3F5C00F31D045
:10423000B3F5C00F28D8B3F5800F1AD0B3F5800FAF
:1042400022D8002B03D0B3F5001F07D01CE0324B5F
:10425000DB6A314A43F40033D3621CE0D7F81C31E7
:1042600008330021184601F0C3FB034687F82F31BD
:1042700011E0D7F81C3128330021184601F06AFC00
:10428000034687F82F3106E0012387F82F3102E03B
:1042900000BF00E000BF97F82F31002B0BD11E4B61
:1042A0009B6D23F46001D7F81C31D3F8AC301A4A67
:1042B0000B43936503E097F82F3187F82E31D7F839
:1042C0001C31D3E9002302F40063C7F8083100234E
:1042D000C7F80C31D7E942120B46134356D0D7F832
:1042E0001C31D3F8B030B3F1806F38D0B3F1806FA8
:1042F00031D8B3F1407F34D0B3F1407F2BD8B3F144
:10430000007F1DD0B3F1007F25D8002B06D0B3F17C
:10431000807F0AD01FE000BF00440258A24BDB6A36
:10432000A14A43F40033D3621CE0D7F81C310833B0
:104330000021184601F05CFB034687F82F3111E09D
:10434000D7F81C3128330021184601F003FC03463E
:1043500087F82F3106E0012387F82F3102E000BFF4
:1043600000E000BF97F82F31002B0BD18E4B9B6DD7
:1043700023F0E061D7F81C31D3F8B0308A4A0B4300
:10438000936503E097F82F3187F82E31D7F81C3169
:10439000D3E9002302F00073C7F800310023C7F807
:1043A0000431D7E940120B4613433AD0D7F81C31F9
:1043B000DB6C302B1FD0302B19D8202B0CD0202BAE
:1043C00015D8002B19D0102B11D1774BDB6A764A08
:1043D00043F40033D36211E0D7F81C3108330221D3
:1043E000184601F005FB034687F82F3106E001234C
:1043F00087F82F3102E000BF00E000BF97F82F31AF
:10440000002B0AD1684BDB6C23F03001D7F81C314C
:10441000DB6C654A0B43D36403E097F82F3187F8D0
:104420002E31D7F81C31D3E9002302F48053C7F8AA
:10443000F8300023C7F8FC30D7E93E120B4613438F
:1044400051D0D7F81C315B6EB3F5804F35D0B3F542
:10445000804F2ED8B3F5405F31D0B3F5405F28D8F8
:10446000B3F5005F1AD0B3F5005F22D8002B03D05C
:10447000B3F5805F07D01CE04B4BDB6A4A4A43F43C
:104480000033D3621CE0D7F81C31083300211846F2
:1044900001F0AEFA034687F82F3111E0D7F81C314E
:1044A00028330021184601F055FB034687F82F31C9
:1044B00006E0012387F82F3102E000BF00E000BFD3
:1044C00097F82F31002B0AD1374B1B6D23F4E041B5
:1044D000D7F81C315B6E344A0B43136503E097F841
:1044E0002F3187F82E31D7F81C31D3E9002302F49D
:1044F0000053C7F8F0300023C7F8F430D7E93C1276
:104500000B46134356D0D7F81C319B6EB3F5A02F42
:1045100033D0B3F5A02F2CD8B3F5802F2FD0B3F51F
:10452000802F26D8B3F5403F2BD0B3F5403F20D89D
:10453000B3F5003F12D0B3F5003F1AD8002B22D0BC
:10454000B3F5803F15D1D7F81C3108330121184647
:1045500001F04EFA034687F82F3115E0D7F81C31E9
:1045600028330121184601F0F5FA034687F82F3168
:104570000AE0012387F82F3106E000BF04E000BF06
:1045800002E000BF00E000BF97F82F31002B0DD1F3
:10459000054B1B6D23F4E021D7F81C319B6E024ABA
:1045A0000B43136506E000BF0044025897F82F3113
:1045B00087F82E31D7F81C31D3E9002302F4804369
:1045C000C7F8E8300023C7F8EC30D7E93A120B46B9
:1045D000134355D0D7F81C31D3F8B430B3F1A04F02
:1045E00033D0B3F1A04F2CD8B3F1804F2FD0B3F11B
:1045F000804F26D8B3F1405F2BD0B3F1405F20D875
:10460000B3F1005F12D0B3F1005F1AD8002B22D0B3
:10461000B3F1805F15D1D7F81C310833012118465A
:1046200001F0E6F9034687F82F3115E0D7F81C3181
:1046300028330121184601F08DFA034687F82F31FF
:104640000AE0012387F82F3106E000BF04E000BF35
:1046500002E000BF00E000BF97F82F31002B0BD124
:10466000B64B9B6D23F0E041D7F81C31D3F8B43042
:10467000B24A0B43936503E097F82F3187F82E3148
:10468000D7F81C31D3E9002302F08063C7F8E0308B
:104690000023C7F8E430D7E938120B4613432AD079
:1046A000D7F81C311B6D002B11D0B3F5807F0AD1D8
:1046B000D7F81C3108330121184601F099F9034657
:1046C00087F82F3104E0012387F82F3100E000BF85
:1046D00097F82F31002B0AD1984BDB6C23F48071B3
:1046E000D7F81C311B6D954A0B43D36403E097F850
:1046F0002F3187F82E31D7F81C31D3E9002302F48B
:104700000043C7F8D8300023C7F8DC30D7E93612A9
:104710000B46134337D0D7F81C315B6FB3F1005F02
:104720000ED0B3F1005F16D8002B18D0B3F1805F24
:1047300011D1824BDB6A814A43F40033D3620FE02C
:10474000D7F81C3108330121184601F051F903460E
:1047500087F82F3104E0012387F82F3100E000BFF4
:1047600097F82F31002B0AD1744B1B6D23F0405169
:10477000D7F81C315B6F714A0B43136503E097F860
:104780002F3187F82E31D7F81C31D3E9002302F0FE
:104790008073C7F8D0300023C7F8D430D7E934127B
:1047A0000B4613433AD0D7F81C319B6C032B1DD812
:1047B00001A252F823F000BFF5470408C9470408D6
:1047C000D7470408F54704085C4BDB6A5B4A43F4AF
:1047D0000033D3620FE0D7F81C31083302211846AA
:1047E00001F006F9034687F82F3104E0012387F82A
:1047F0002F3100E000BF97F82F31002B0AD14F4B2B
:10480000DB6C23F00301D7F81C319B6C4B4A0B4344
:10481000D36403E097F82F3187F82E31D7F81C3195
:10482000D3E9002302F48003C7F8C8300023C7F897
:10483000CC30D7E932120B46134300F0A080404B36
:104840001B683F4A43F480731360FCF745FCC7F8CC
:1048500028010BE0FCF740FC0246D7F82831D31AB8
:10486000642B03D9032387F82F3105E0344B1B68F1
:1048700003F48073002BEDD097F82F31002B7AD101
:104880002E4B1A6FD7F81C31D3F8B830534003F4CD
:104890004073002B15D0294B1B6F23F44073C7F8CE
:1048A0002431264B1B6F254A43F480331367234B77
:1048B0001B6F224A23F480331367204AD7F8243130
:1048C0001367D7F81C31D3F8B830B3F5807F18D10F
:1048D000FCF702FCC7F828010DE0FCF7FDFB0246DF
:1048E000D7F82831D21A41F288339A4203D90323E8
:1048F00087F82F3105E0114B1B6F03F00203002BEB
:10490000EBD097F82F31002B30D1D7F81C31D3F8EA
:10491000B83003F44073B3F5407F15D1074B1B69E2
:1049200023F47C51D7F81C31D3F8B8301A09054B61
:104930001340024A0B4313610CE000BF00440258CD
:1049400000480258CFFFFF00D44B1B69D34A23F421
:104950007C531361D14B196FD7F81C31D3F8B830A1
:10496000C3F30B03CD4A0B43136708E097F82F31CD
:1049700087F82E3103E097F82F3187F82E31D7F8DA
:104980001C31D3E9002302F00103C7F8C030002333
:10499000C7F8C430D7E930120B46134300F08B80C0
:1049A000D7F81C31D3F88030282B6BD801A252F8ED
:1049B00023F000BF8D4A0408854A0408854A04088C
:1049C000854A0408854A0408854A0408854A04087B
:1049D000854A0408594A0408854A0408854A040897
:1049E000854A0408854A0408854A0408854A04085B
:1049F000854A04086F4A0408854A0408854A040861
:104A0000854A0408854A0408854A0408854A04083A
:104A1000854A04088D4A0408854A0408854A040822
:104A2000854A0408854A0408854A0408854A04081A
:104A3000854A04088D4A0408854A0408854A040802
:104A4000854A0408854A0408854A0408854A0408FA
:104A5000854A04088D4A0408D7F81C31083301211F
:104A6000184600F0C5FF034687F82F310FE0D7F84E
:104A70001C3128330121184601F06CF8034687F8F1
:104A80002F3104E0012387F82F3100E000BF97F8B1
:104A90002F31002B0BD1814B5B6D23F03801D7F800
:104AA0001C31D3F880307D4A0B43536503E097F8FF
:104AB0002F3187F82E31D7F81C31D3E9002302F0CB
:104AC0000203C7F8B8300023C7F8BC30D7E92E126C
:104AD0000B46134342D0D7F81C31DB6F052B25D88A
:104AE00001A252F823F000BF354B0408014B040823
:104AF000174B0408354B0408354B0408354B0408A4
:104B0000D7F81C3108330121184600F071FF034625
:104B100087F82F310FE0D7F81C31283301211846D0
:104B200001F018F8034687F82F3104E0012387F8D5
:104B30002F3100E000BF97F82F31002B0AD1574BDF
:104B40005B6D23F00701D7F81C31DB6F534A0B4331
:104B5000536503E097F82F3187F82E31D7F81C31D1
:104B6000D3E9002302F00403C7F8B0300023C7F8EC
:104B7000B430D7E92C120B46134344D0D7F81C317C
:104B8000D3F89830052B25D801A252F823F000BFA6
:104B9000DD4B0408A94B0408BF4B0408DD4B040897
:104BA000DD4B0408DD4B0408D7F81C310833012124
:104BB000184600F01DFF034687F82F310FE0D7F8A5
:104BC0001C3128330121184600F0C4FF034687F842
:104BD0002F3104E0012387F82F3100E000BF97F860
:104BE0002F31002B0BD12D4B9B6D23F00701D7F8F4
:104BF0001C31D3F89830294A0B43936503E097F8AA
:104C00002F3187F82E31D7F81C31D3E9002302F079
:104C10002003C7F8A8300023C7F8AC30D7E92A1220
:104C20000B46134357D0D7F81C31D3F89430B3F167
:104C3000A04F35D0B3F1A04F2CD8B3F1804F31D075
:104C4000B3F1804F26D8B3F1405F2DD0B3F1405F70
:104C500020D8B3F1005F12D0B3F1005F1AD8002B57
:104C600024D0B3F1805F15D1D7F81C31083300216F
:104C7000184600F0BDFE034687F82F3117E0D7F83D
:104C80001C3128330221184600F064FF034687F8E0
:104C90002F310CE0012387F82F3108E0004402583F
:104CA00000BF04E000BF02E000BF00E000BF97F8D3
:104CB0002F31002B0BD1C24B5B6D23F0E041D7F8B5
:104CC0001C31D3F89430BE4A0B43536503E097F888
:104CD0002F3187F82E31D7F81C31D3E9002302F0A9
:104CE0004003C7F8A0300023C7F8A430D7E9281242
:104CF0000B46134355D0D7F81C31D3F8A030B3F589
:104D0000A05F33D0B3F5A05F2CD8B3F5805F2FD070
:104D1000B3F5805F26D8B3F5406F2BD0B3F5406F65
:104D200020D8B3F5006F12D0B3F5006F1AD8002B5E
:104D300022D0B3F5806F15D1D7F81C31083300218C
:104D4000184600F055FE034687F82F3115E0D7F8D6
:104D50001C3128330221184600F0FCFE034687F878
:104D60002F310AE0012387F82F3106E000BF04E06D
:104D700000BF02E000BF00E000BF97F82F31002B1A
:104D80000BD18F4B9B6D23F4E051D7F81C31D3F836
:104D9000A0308B4A0B43936503E097F82F3187F8D7
:104DA0002E31D7F81C31D3E9002302F08003C7F875
:104DB00098300023C7F89C30D7E926120B461343DE
:104DC00055D0D7F81C31D3F8A430B3F5204F33D0E9
:104DD000B3F5204F2CD8B3F5004F2FD0B3F5004FCB
:104DE00026D8B3F5C04F2BD0B3F5C04F20D8B3F5BC
:104DF000804F12D0B3F5804F1AD8002B22D0B3F5D4
:104E0000005F15D1D7F81C3108330021184600F097
:104E1000EFFD034687F82F3115E0D7F81C31283312
:104E20000221184600F096FE034687F82F310AE06B
:104E3000012387F82F3106E000BF04E000BF02E045
:104E400000BF00E000BF97F82F31002B0BD15C4B67
:104E50009B6D23F46041D7F81C31D3F8A430584A35
:104E60000B43936503E097F82F3187F82E31D7F87D
:104E70001C31D3E9002302F00803C7F89030002367
:104E8000C7F89430D7E924120B4613431ED0D7F845
:104E90001C31D3F88830B3F5805F0CD1D7F81C31C2
:104EA00028330221184600F055FE0346002B02D09D
:104EB000012387F82E31424B5B6D23F44051D7F824
:104EC0001C31D3F888303E4A0B435365D7F81C3168
:104ED000D3E9002302F01003C7F888300023C7F895
:104EE0008C30D7E922120B4613431ED0D7F81C3161
:104EF000D3F89C30B3F5807F0CD1D7F81C31283320
:104F00000221184600F026FE0346002B02D00123A2
:104F100087F82E312A4B9B6D23F44071D7F81C3152
:104F2000D3F89C30264A0B439365D7F81C31D3E95C
:104F3000002302F40023C7F880300023C7F8843030
:104F4000D7E920120B46134340D0D7F81C31D3F8D1
:104F5000A830B3F5003F22D0B3F5003F1BD8002B9B
:104F600003D0B3F5803F0BD015E0D7F81C310833E0
:104F70000021184600F03CFD034687F82F310FE072
:104F8000D7F81C3128330221184600F0E3FD034610
:104F900087F82F3104E0012387F82F3100E000BFAC
:104FA00097F82F31002B0DD1054B9B6D23F4403129
:104FB000D7F81C31D3F8A830014A0B43936505E0BC
:104FC0000044025897F82F3187F82E31D7F81C315A
:104FD000D3E9002302F48023BB670023FB67D7E9F2
:104FE0001E120B4613433BD0D7F81C31D3F88C303C
:104FF000B3F5401F1FD0B3F5401F18D8B3F5801F7D
:1050000003D0B3F5001F07D011E0644BDB6A634A9D
:1050100043F40033D3620FE0D7F81C312833012169
:10502000184600F097FD034687F82F3104E001236E
:1050300087F82F3100E000BF97F82F31002B0BD1FC
:10504000564B5B6D23F44011D7F81C31D3F88C30EC
:10505000524A0B43536503E097F82F3187F82E31FE
:10506000D7F81C31D3E9002302F480333B670023D7
:105070007B67D7E91C120B46134331D0D7F81C319C
:105080005B6D002B03D0B3F5803F07D011E0434B9D
:10509000DB6A424A43F40033D3620EE0D7F81C3196
:1050A00008330221184600F0A3FC034687F82F318D
:1050B00003E0012387F82F3100BF97F82F31002B31
:1050C0000AD1364BDB6C23F48031D7F81C315B6D91
:1050D000324A0B43D36403E097F82F3187F82E311F
:1050E000D7F81C31D3E9002302F00053BB6600233C
:1050F000FB66D7E91A120B4613430CD0D7F81C31C4
:1051000028330221184600F025FD0346002B02D06B
:10511000012387F82E31D7F81C31D3E9002302F49C
:1051200000333B6600237B66D7E918120B46134316
:105130003AD0D7F81C31D3F88430B3F5407F18D07B
:10514000B3F5407F11D8B3F5007F14D0B3F5007FDD
:105150000BD8002B11D0B3F5807F06D10F4BDB6A43
:105160000E4A43F40033D36208E0012387F82F315D
:1051700004E000BF02E000BF00E000BF97F82F315D
:10518000002B0DD1054B5B6D23F44071D7F81C311A
:10519000D3F88430014A0B43536505E000440258BC
:1051A00097F82F3187F82E31D7F81C31D3E9002337
:1051B00002F48013BB650023FB65D7E916120B468A
:1051C000134309D0AA4B1B6D23F00041D7F81C31C3
:1051D0009B6FA74A0B431365D7F81C31D3E9002313
:1051E00002F080533B6500237B65D7E914120B4620
:1051F00013430AD09E4B1B6923F48041D7F81C311E
:10520000D3F8BC309A4A0B431361D7F81C31D3E969
:10521000002302F40013BB640023FB64D7E91212DD
:105220000B46134309D0924B1B6D23F08071D7F8C6
:105230001C311B6F8E4A0B431365D7F81C31D3E921
:10524000002302F080433B6400237B64D7E9101203
:105250000B4613430ED0864B1B69854A23F400434B
:105260001361834B1969D7F81C31D3F8C030804AD9
:105270000B431361D7F81C31D3E9002302F000433C
:10528000BB630023FB63D7E90E120B46134309D01F
:10529000774BDB6C23F04051D7F81C319B6D744A7F
:1052A0000B43D364D7F81C31D3E9002302F4000385
:1052B0003B6300237B63D7E90C120B4613430AD0F0
:1052C0006B4B5B6D23F44001D7F81C31D3F8903061
:1052D000674A0B435365D7F81C31D3E900230021FB
:1052E000B96203F00103FB62D7E90A120B461343CC
:1052F00011D0D7F81C3108330021184600F078FB94
:10530000034687F82F3197F82F31002B03D097F8F9
:105310002F3187F82E31D7F81C31D3E90023002133
:10532000396203F002037B62D7E908120B4613438C
:1053300011D0D7F81C3108330121184600F058FB72
:10534000034687F82F3197F82F31002B03D097F8B9
:105350002F3187F82E31D7F81C31D3E900230021F3
:10536000B96103F00403FB61D7E906120B4613434E
:1053700011D0D7F81C3108330221184600F038FB51
:10538000034687F82F3197F82F31002B03D097F879
:105390002F3187F82E31D7F81C31D3E900230021B3
:1053A000396103F008037B61D7E904120B4613430C
:1053B00011D0D7F81C3128330021184600F0CAFB61
:1053C000034687F82F3197F82F31002B03D097F839
:1053D0002F3187F82E31D7F81C31D3E90023002173
:1053E000B96003F01003FB60D7E902120B461343C8
:1053F00011D0D7F81C3128330121184600F0AAFB40
:10540000034687F82F3197F82F31002B03D097F8F8
:105410002F3187F82E31D7F81C31D3E90023002132
:10542000396003F020037B60D7E900120B46134379
:1054300011D0D7F81C3128330221184600F08AFB1E
:10544000034687F82F3197F82F31002B03D097F8B8
:105450002F3187F82E3197F82E31002B01D1002300
:1054600000E00123184607F59877BD46BDE8B08FE8
:105470000044025880B500AFFEF756FD0246064BC9
:105480001B6A1B0903F007030449CB5C03F01F03ED
:1054900022FA03F3184680BD00440258D8C204081B
:1054A00080B489B000AF7860A14B9B6A03F003031E
:1054B000BB619F4B9B6A1B0B03F03F037B619C4BC3
:1054C000DB6A1B0903F001033B61994BDB6BDB08D3
:1054D000C3F30C033A6902FB03F307EE903AF8EECC
:1054E000677AC7ED037A7B69002B00F01181BB69F5
:1054F000022B00F08380BB69022B00F2A180BB6904
:10550000002B03D0BB69012B56D099E0884B1B6858
:1055100003F02003002B2DD0854B1B68DB0803F024
:105520000303844A22FA03F3BB60BB6807EE903A98
:10553000F8EE676A7B6907EE903AF8EE677A86EED6
:10554000A77A7B4B9B6BC3F3080307EE903AF8EE08
:10555000676A97ED036ADFED785AC6EE257A76EE34
:10556000A77AF7EE006A77EEA67A67EE277AC7ED9C
:10557000077A87E07B6907EE903AF8EE677ADFED0D
:105580006F6A86EEA77A6A4B9B6BC3F3080307EE3C
:10559000903AF8EE676A97ED036ADFED675AC6EE58
:1055A000257A76EEA77AF7EE006A77EEA67A67EEAE
:1055B000277AC7ED077A65E07B6907EE903AF8EE47
:1055C000677ADFED5F6A86EEA77A594B9B6BC3F370
:1055D000080307EE903AF8EE676A97ED036ADFED8D
:1055E000565AC6EE257A76EEA77AF7EE006A77EE7F
:1055F000A67A67EE277AC7ED077A43E07B6907EE64
:10560000903AF8EE677ADFED4F6A86EEA77A484B5C
:105610009B6BC3F3080307EE903AF8EE676A97EDC9
:10562000036ADFED455AC6EE257A76EEA77AF7EEE5
:10563000006A77EEA67A67EE277AC7ED077A21E04F
:105640007B6907EE903AF8EE677ADFED3D6A86EE09
:10565000A77A374B9B6BC3F3080307EE903AF8EE3B
:10566000676A97ED036ADFED345AC6EE257A76EE67
:10567000A77AF7EE006A77EEA67A67EE277AC7ED8B
:10568000077A00BF2A4B9B6B5B0A03F07F0307EE90
:10569000903AF8EE677AB7EE007A37EE877AD7ED70
:1056A000076AC6EE877AFCEEE77A17EE902A7B68E7
:1056B0001A601F4B9B6B1B0C03F07F0307EE903AA5
:1056C000F8EE677AB7EE007A37EE877AD7ED076A99
:1056D000C6EE877AFCEEE77A17EE902A7B685A606E
:1056E000134B9B6B1B0E03F07F0307EE903AF8EE13
:1056F000677AB7EE007A37EE877AD7ED076AC6EE9B
:10570000877AFCEEE77A17EE902A7B689A6008E0C9
:105710007B6800221A607B6800225A607B68002246
:105720009A6000BF2437BD465DF8047B704700BF18
:10573000004402580090D003000000460024744C3E
:105740000024744A20BCBE4B80B489B000AF78609E
:10575000A14B9B6A03F00303BB619F4B9B6A1B0D2C
:1057600003F03F037B619C4BDB6A1B0A03F00103E0
:105770003B61994B5B6CDB08C3F30C033A6902FB9A
:1057800003F307EE903AF8EE677AC7ED037A7B6988
:10579000002B00F01181BB69022B00F08380BB69F4
:1057A000022B00F2A180BB69002B03D0BB69012B47
:1057B00056D099E0884B1B6803F02003002B2DD0B6
:1057C000854B1B68DB0803F00303844A22FA03F3CA
:1057D000BB60BB6807EE903AF8EE676A7B6907EE3C
:1057E000903AF8EE677A86EEA77A7B4B1B6CC3F390
:1057F000080307EE903AF8EE676A97ED036ADFED6B
:10580000785AC6EE257A76EEA77AF7EE006A77EE3A
:10581000A67A67EE277AC7ED077A87E07B6907EEFD
:10582000903AF8EE677ADFED6F6A86EEA77A6A4BF8
:105830001B6CC3F3080307EE903AF8EE676A97ED26
:10584000036ADFED675AC6EE257A76EEA77AF7EEA1
:10585000006A77EEA67A67EE277AC7ED077A65E0E9
:105860007B6907EE903AF8EE677ADFED5F6A86EEC5
:10587000A77A594B1B6CC3F3080307EE903AF8EE76
:10588000676A97ED036ADFED565AC6EE257A76EE23
:10589000A77AF7EE006A77EEA67A67EE277AC7ED69
:1058A000077A43E07B6907EE903AF8EE677ADFED1E
:1058B0004F6A86EEA77A484B1B6CC3F3080307EECA
:1058C000903AF8EE676A97ED036ADFED455AC6EE47
:1058D000257A76EEA77AF7EE006A77EEA67A67EE7B
:1058E000277AC7ED077A21E07B6907EE903AF8EE58
:1058F000677ADFED3D6A86EEA77A374B1B6CC3F300
:10590000080307EE903AF8EE676A97ED036ADFED59
:10591000345AC6EE257A76EEA77AF7EE006A77EE6D
:10592000A67A67EE277AC7ED077A00BF2A4B1B6C71
:105930005B0A03F07F0307EE903AF8EE677AB7EE62
:10594000007A37EE877AD7ED076AC6EE877AFCEEE3
:10595000E77A17EE902A7B681A601F4B1B6C1B0CB2
:1059600003F07F0307EE903AF8EE677AB7EE007A1D
:1059700037EE877AD7ED076AC6EE877AFCEEE77ACC
:1059800017EE902A7B685A60134B1B6C1B0E03F0BA
:105990007F0307EE903AF8EE677AB7EE007A37EEBB
:1059A000877AD7ED076AC6EE877AFCEEE77A17EEBC
:1059B000902A7B689A6008E07B6800221A607B6806
:1059C00000225A607B6800229A6000BF2437BD46DF
:1059D0005DF8047B704700BF004402580090D0037C
:1059E000000000460024744C0024744A20BCBE4BC6
:1059F00080B584B000AF786039600023FB73534BEF
:105A00009B6A03F00303032B01D1012399E04F4B61
:105A10001B684E4A23F080631360FBF75DFBB860A0
:105A200008E0FBF759FB0246BB68D31A022B01D9E9
:105A3000032386E0454B1B6803F00063002BF0D185
:105A4000424B9B6A23F47C327B681B681B033F49F3
:105A500013438B627B685B68013BC3F308027B687E
:105A60009B68013B5B029BB21A437B68DB68013B8E
:105A70001B0403F4FE031A437B681B69013B1B06EE
:105A800003F0FE43314913438B63304BDB6A23F051
:105A9000C0027B685B692D491343CB622B4BDB6AE9
:105AA00023F020027B689B6928491343CB62274B74
:105AB000DB6A264A23F01003D362244BDA6B244BB3
:105AC00013407A68D269D20020491343CB631F4B3D
:105AD000DB6A1E4A43F01003D3623B68002B06D1F9
