:020000040800F2
:10000000FCFF072455090008490800084B080008B0
:100010004D0800084F0800085108000800000000C3
:10002000000000000000000000000000530800086D
:10003000550800080000000057080008590800088B
:10004000A9090008A9090008A9090008A9090008C8
:10005000A9090008A9090008A9090008A9090008B8
:10006000A9090008A9090008A9090008A9090008A8
:10007000A9090008A9090008A9090008A909000898
:10008000A9090008A9090008A9090008A909000888
:10009000A9090008A9090008A909000861080008C1
:1000A000A9090008A9090008A9090008A909000868
:1000B000A9090008A9090008A9090008A909000858
:1000C000A9090008A9090008A9090008A909000848
:1000D000A9090008A9090008A9090008A909000838
:1000E000A9090008A909000800000000A9090008E2
:1000F000A9090008A9090008A9090008A909000818
:10010000A9090008A9090008A9090008A909000807
:10011000A9090008A9090008A9090008A9090008F7
:10012000A9090008A9090008A9090008A9090008E7
:10013000A9090008A9090008A9090008A9090008D7
:10014000A9090008A909000800000000000000003B
:10015000A9090008A9090008A9090008A9090008B7
:10016000A9090008A9090008A9090008A9090008A7
:10017000A909000875080008A90900080000000086
:10018000A9090008A9090008A9090008A909000887
:10019000A9090008A9090008A9090008A909000877
:1001A000A9090008A9090008A9090008A909000867
:1001B000A9090008A9090008A9090008A909000857
:1001C000A9090008A9090008A9090008A909000847
:1001D000A9090008A9090008A9090008A909000837
:1001E000A9090008A9090008A9090008A909000827
:1001F000A9090008A9090008A9090008A909000817
:10020000A9090008A9090008A9090008A909000806
:10021000A9090008A9090008A9090008A9090008F6
:10022000A9090008A9090008A9090008A9090008E6
:10023000A9090008A9090008A9090008A9090008D6
:10024000A9090008A9090008A9090008A9090008C6
:10025000A9090008A9090008A9090008A9090008B6
:10026000A9090008A9090008A9090008A9090008A6
:10027000A9090008A9090008A9090008A909000896
:10028000A9090008A9090008A90900080000000040
:08029000A9090008A9090008F2
:1002A00010B5054C237833B9044B13B10448AFF3B0
:1002B00000800123237010BD4801002400000000CD
:1002C0005467000808B5034B1BB103490348AFF35B
:1002D000008008BD000000004C01002454670008A5
:1002E00001F0FF01102A2BDB10F0070F08D010F8E7
:1002F000013B013A8B422DD010F0070F42B3F6D1EB
:10030000F0B441EA012141EA014122F007047FF003
:1003100000070023F0E80256083C85EA010586EA5A
:10032000010685FA47F5A3FA87F586FA47F6A5FA96
:1003300087F68EB9EED1F0BC01F0FF0102F00702A2
:1003400032B110F8013B013A83EA010313B1F8D14D
:100350000020704701387047002D06BF354603382E
:10036000073815F0010F07D1013015F4807F02BF67
:10037000013015F4C03F0130F0BC0138704700BFB8
:10038000394BD3F8882042F47002C3F888201A69E8
:1003900042F010021A61354B1B6803F00F03062B65
:1003A00006D8324A136823F00F0343F007031360A3
:1003B0002F4B1A6842F001021A6000221A61196874
:1003C0002C4A0A401A60294B1B6813F0080F06D00C
:1003D000264A136823F00F0343F007031360244BEE
:1003E00000229A61DA611A62234999622349D9622B
:1003F000234919635A639963DA6319645A64196863
:1004000021F4802119601A664FF0B042D2F8E4302E
:1004100043F48043C2F8E4301A4B1B686FF30F03B8
:10042000B3F1005F03D2184B0122C3F80821104B2F
:10043000D3F8D43013F4805F10D10D4BD3F8D4200F
:1004400042F48052C3F8D420104A43F2D201116022
:10045000D3F8D42022F48052C3F8D420024B4FF0BA
:1004600000629A60704700BF00ED00E0002000527B
:10047000004402587FEDF6EA000202020000FF018C
:10048000800201010010005C008000510040005219
:10049000054AD36823F00203D360034B5B6813F46F
:1004A000005FFAD0704700BF0048025870B58AB0AC
:1004B000002405940694079408940994374BD3F8C4
:1004C000E02042F00202C3F8E020D3F8E02002F07E
:1004D00002020092009AD3F8E02042F00102C3F831
:1004E000E020D3F8E02002F001020192019AD3F853
:1004F000E02042F00402C3F8E020D3F8E02002F04C
:1005000004020292029AD3F8E02042F48072C3F807
:10051000E020D3F8E02002F480720392039AD3F82B
:10052000E02042F08002C3F8E020D3F8E03003F08E
:1005300080030493049B1A4D22464FF40061284621
:1005400000F040FC4FF4407305934FF4881306937A
:100550000126079605A9134800F024FB4FF4807389
:1005600005930223069307940894099405A9284645
:1005700000F018FB4FF40063059306960794089467
:1005800005A9284600F00EFB22462146172000F060
:10059000E1FA172000F0EEFA0AB070BD00440258EC
:1005A000000002580004025810B504460B4805F03C
:1005B00013FBB4F5807F03D0B4F5007F07D010BDE6
:1005C000074805F009FB074B01221A60F4E70648CB
:1005D00005F002FB054B01221A60F0E77C6700087A
:1005E000886700080C0000249C67000808000024AD
:1005F00072B6FEE700B59DB04C22002109A805F0B7
:10060000D5FB2022002101A805F0D0FB042001F039
:100610005DFA00230093284BDA6A22F00102DA62C5
:10062000DB6A03F001030093244B9A6942F44042D1
:100630009A619B6903F440430093009B1F4B9B69A5
:1006400013F4005FFAD00B2309934FF480330A931D
:1006500001230C9340220D920E93022312931393C5
:10066000052214923021159116931792189308239E
:10067000199300231A931B9309A801F079FAB0B9D2
:100680003F2301930021029103910491059106916A
:100690000791089101A801F011FF50B94FF4802291
:1006A0000021084601F0BCFD1DB05DF804FBFFF71A
:1006B0009FFFFFF79DFF00BF00040058004802584D
:1006C00000B5B3B0C8220021684605F06FFB4FF4B7
:1006D00000220023CDE90023022302930C2203927F
:1006E000049305930693C023079320230893684639
:1006F00002F058F910B933B05DF804FBFFF778FF4A
:1007000000B583B0394805F067FA0024384B1C6007
:10071000384B1C6000F072F9FFF76CFFFFF7D0FF59
:10072000354BD3F8E02042F00072C3F8E020D3F854
:10073000E03003F000730193019B204600F058FB6A
:100740002146204600F064FBFFF7B0FE04F028FECF
:1007500006E02A4B1B6800221A60264B1B6833BB3D
:100760004FF4FA7000F08AF9214B1B68002BF4D08B
:100770001F4B00221A60224805F02EFA214B1F4A17
:1007800013601A68204B9A42E3D0204B1A68204B22
:100790001340B3F1105FDCD11C4A53681D490B6054
:1007A0001D490B60126882F308889847D1E7114B06
:1007B00000221A60194805F00FFA124B0F4A136015
:1007C0001A68114B9A42CBD0154B1A68104B134044
:1007D000B3F1105FC4D1124A53680E490B600E4941
:1007E0000B60126882F308889847B9E7AC67000885
:1007F0000C00002408000024004402586C0100246E
:10080000E4670008FCFF0724EFBEADDE000004082B
:100810000000F82F6401002468010024FC67000830
:1008200000000A0882B0074BD3F8F42042F002021D
:10083000C3F8F420D3F8F43003F002030193019BD2
:1008400002B0704700440258FEE7FEE7FEE7FEE70D
:10085000FEE770477047704708B500F0FDF808BD27
:1008600008B54FF4807000F0B3FA4FF4007000F058
:10087000AFFA08BD08B5024800F0E8FD08BD00BFAA
:100880007C0B00244FF0E022D2F8FC3D43F0807353
:10089000C2F8FC3D4FF06042D2F8003E43F0010345
:1008A000C2F8003E4FF060431B6813F0010FF9D00F
:1008B0004FF060431860704770B50C46164600252F
:1008C00006E0AFF30080214601F8010B01350C462C
:1008D000B542F6DB304670BD70B50C4616460025B5
:1008E00004E014F8010BFFF7CDFF0135B542F8DB4A
:1008F000304670BD4FF0FF3070474FF400534B60EF
:1009000000207047012070470020704710B5034653
:100910000C4A0D490D48006840B10C48006803447A
:10092000521A934206D8094A136010BD0748084C72
:100930000460F2E705F098FA0C2303604FF0FF30F3
:10094000F3E700BFFCFF072400040000700100244F
:10095000B0110024DFF838D0FFF79AFDFFF710FD43
:100960000C480D490D4A002302E0D458C45004330A
:10097000C4188C42F9D30A4A0A4C002301E01360E0
:100980000432A242FBD305F075FAFFF7B9FE7047B7
:10099000FCFF07240000002448010024046900082B
:1009A00048010024AC110024FEE70000104B1B7826
:1009B0000BB90120704710B504464FF47A70B0FBB4
:1009C000F3F30C4A1068B0FBF3F000F0D7F868B905
:1009D0000F2C01D901200AE0002221464FF0FF3000
:1009E00000F0B8F8044B1C60002000E0012010BDAE
:1009F00010000024040000241400002410B503207B
:100A000000F096F801F05EFC0F498B69C3F30323F5
:100A10000E4AD35C03F01F03D8408B6903F00F0329
:100A2000D35C03F01F0320FA03F3094A1360094B58
:100A300018600020FFF7BAFF10B10124204610BD56
:100A40000446FFF7EFFEF9E7004402586C67000820
:100A50000000002404000024034B1B78034A1168A3
:100A60000B441360704700BF100000247401002481
:100A7000014B1868704700BF7401002438B5044664
:100A8000FFF7F6FF0546B4F1FF3F02D0044B1B7899
:100A90001C44FFF7EDFF401BA042FAD338BD00BF56
:100AA00010000024014B1868000C70470010005C17
:100AB000002807DB00F01F02400901239340024A8F
:100AC00042F82030704700BF00E100E0002804DB5E
:100AD0000901C9B2044B1954704700F00F00090115
:100AE000C9B2024B1954704700E400E014ED00E075
:100AF00000B500F00700C0F1070CBCF1040F28BFDF
:100B00004FF0040C031D062B0FD9C31E4FF0FF3E00
:100B10000EFA0CF021EA000199400EFA03FE22EAD7
:100B20000E0241EA02005DF804FB0023EEE700003C
:100B30000649CB6823F4E0631B041B0C000200F49D
:100B4000E0600343024A1A43CA60704700ED00E0C8
:100B50000000FA0510B50446054BD868C0F3022022
:100B6000FFF7C6FF01462046FFF7B0FF10BD00BFEC
:100B700000ED00E008B5FFF79BFF08BD0138B0F1BC
:100B8000807F0BD24FF0E0235861054AF02182F8B4
:100B900023100020986107221A61704701207047D6
:100BA00000ED00E0F0B583B000236BE085685E00E7
:100BB0000324B44025EA0405CC68B4402C43846087
:100BC000456825EA0C054C68C4F300149C402C438E
:100BD000446069E0DD08083550F8254003F0070C53
:100BE0004FEA8C0C4FF00F0E0EFA0CFE24EA0E0E9C
:100BF0000C6904FA0CF444EA0E0440F825406BE05A
:100C0000092400E0002404FA0EF42C430CF1020C39
:100C1000694D45F82C404FF0B0442568D44325EA8F
:100C200002064F6817F4801F01D042EA05064FF014
:100C3000B0452E606D6804EA05064F6817F4001F82
:100C400001D042EA05064FF0B0456E60D5F88450F9
:100C500004EA05064F6817F4003F01D042EA050692
:100C60004FF0B045C5F88460D5F880502C404E68F0
:100C700016F4803F01D042EA05044FF0B042C2F8BA
:100C8000804001330A6832FA03F400F092804FF09A
:100C9000010C0CFA03FC1CEA0202F2D04C6804F0CE
:100CA0000304013C012C81D94C6804F00304032C9B
:100CB0000CD0C4685D004FF0030C0CFA05FC24EA6C
:100CC0000C0C8C68AC4044EA0C04C4604C6804F022
:100CD0000304022C3FF47EAF04684FEA430E4FF04A
:100CE000030C0CFA0EFC24EA0C0C4C6804F0030410
:100CF00004FA0EF444EA0C0404604C6814F4403F17
:100D0000BFD02E4CD4F8F45045F00205C4F8F4508E
:100D1000D4F8F44004F002040194019C4FEA930CCF
:100D20000CF10205244C54F8255003F0030E4FEA51
:100D30008E0E0F2404FA0EF425EA0405204CA0427E
:100D40003FF460AF04F58064A04222D004F58064D3
:100D5000A04220D004F58064A0421ED004F5806437
:100D6000A0421CD004F58064A0421AD004F580642F
:100D7000A04218D004F58064A04216D004F5806427
:100D8000A04214D004F58064A0423FF439AF0A2495
:100D900039E7012437E7022435E7032433E7042445
:100DA00031E705242FE706242DE707242BE7082445
:100DB00029E703B0F0BD00BF00040058004402580A
:100DC000000002580AB181617047090481617047CF
:100DD00008B54FF0B043D3F88830034200D108BDC6
:100DE0004FF0B043C3F88800FFF7DEFBF7E70000E1
:100DF0002030054B53F82020044B9A4201D00120AB
:100E000070470020704700BF006402580003008054
:100E100041F44071014B43F82010704700640258C0
:100E20002DE9F04383B0D0F8008001EBC10300EB63
:100E300083039A6A5B6A9A4254D807460C469B1A07
:100E400001EBC10200EB8202D2699A4200D31A463A
:100E500002F103094FEA990915E006F103094FEA87
:100E60009909BB7904EBC40507EB8505296A009352
:100E7000B3B2E2B2404602F0D2FD2B6A33442B6299
:100E8000AB6A3344AB6208EB441303F510639B6910
:100E90009BB24B4512D304EBC40307EB83039A6A5E
:100EA0005B6A9A420AD24BB19B1A04EBC40207EB6D
:100EB0008202D6699E42D0D31E46CEE704EBC4031D
:100EC00007EB83077A6ABB6A9A420FD804F00F04D3
:100ED0000122A240D8F8343823EA0203C8F8343893
:100EE000002000E0012003B0BDE8F0830020FAE715
:100EF00030B583B000287AD0044690F89534ABB171
:100F0000032384F89534206802F0B0FB237C8DF82D
:100F10000030231D0ECB206802F0DEFA58B1022308
:100F200084F895340125284603B030BD80F8943408
:100F300004F008FBE4E70021206802F086FF024687
:100F400008B9034617E0022384F895340125EAE73F
:100F500003EBC30104EB8101012048750B75CB85C0
:100F600000200876C861086203EBC30104EB81012D
:100F700048620133DBB220799842E9D816E002EBEF
:100F8000C20304EB8303002183F8551283F8542233
:100F900083F85812C3F85C12C3F8601202EBC20364
:100FA00004EB8303C3F864120132D2B29042E6D854
:100FB000237C8DF80030231D0ECB206802F0ACFBA3
:100FC000054658B900236374012384F89534237BC4
:100FD000012B08D0206802F0F7FEA4E7022384F872
:100FE000953401259FE7204600F05AFDF2E70125E0
:100FF00099E7036890F89424012A1AD010B50446A2
:10100000012280F89424DA6812F0400F02D0427B6B
:10101000012A09D0206802F023FB206802F0C6FEF6
:10102000002084F8940410BD9A6B42F480329A63D5
:10103000F0E70220704738B5056890F89434012B2A
:101040001DD00446012380F89434284602F00EFB9C
:10105000206802F0B9FE1021206802F00DFBEB6859
:1010600013F0400F02D0637B012B03D0002084F8E3
:10107000940438BDAB6B23F48033AB63F6E70220F6
:10108000F7E7000070B504460D460068066C00EBFB
:10109000411303F530639A68A179012911D03849C9
:1010A0008E4256D03DB905EBC50304EB8303D3F85C
:1010B0006432002B5ED0E9B2204604F015FB00201C
:1010C00070BD12F0080F09D02E498E42F7D912F4E4
:1010D000004FF4D04FF400429A60F0E712F0200F76
:1010E00002D020229A60EAE712F0280FE7D12549C2
:1010F0008E4206D912F4004F03D04FF400429A609A
:10110000DDE705EBC50204EB8202D2F874121B691D
:10111000C3F31203CB1AC2F868327DB905EBC502DE
:1011200004EB8202D2F864226AB105EBC50204EB3B
:101130008202D2F860121944C2F86012E9B2204665
:1011400004F0D2FABBE704F29C42012102F0BCFE9B
:10115000F4E712F4004F03D04FF400429A60AEE778
:1011600012F0200F01D020229A60E9B2204604F04C
:10117000BBFAA4E704F29C42002102F0A5FE9AE724
:101180000A31544F0A30544F38B5044603681D6C79
:1011900003EB4113D3F8081B0E4A954207D903F518
:1011A000306311F4004F02D04FF400429A602046A1
:1011B00004F092FA074B9D4202D9A379012B01D08A
:1011C000002038BD04F29C420121206802F07CFE20
:1011D000F6E700BF0A30544F90F89434012B0CD03E
:1011E00010B50446012380F894344174006802F07D
:1011F000CDFD002084F8940410BD0220704738B55E
:1012000005468C4611F0800F2BD101F00F0E0EEB2E
:10121000CE04A40004F514740444211D0EEBCE0E7C
:1012200000EB8E0E00208EF855020CF00F0C81F8AA
:1012300000C0C2F30A028A600B714A780AB1A1F8B1
:101240001AC0022B1CD095F89434012B1BD001231B
:1012500085F89434286802F037FB002085F8940460
:1012600038BD01F00F0000EBC001890010312944A6
:10127000043100EBC00005EB800001244475D4E785
:1012800000234B71DFE70220EAE710B5144601F0B6
:101290000F0C0CEBCC01890001F5147101440431F1
:1012A0000CEBCC0E00EB8E0ECEF86022CEF8643242
:1012B0000023CEF868328EF855328EF854C2827907
:1012C000012A04D0006802F0C1FB002010BDCEF856
:1012D0007042F7E710B5144601F00F0C0CEBCC018F
:1012E00089001031014404310CEBCC0E00EB8E0E62
:1012F000CEF82020CEF824300023CEF82830012369
:101300008EF815308EF814C082799A4204D00068A5
:1013100002F09CFB002010BDCEF83040F7E738B556
:1013200001F00F050279AA4238D304460B4611F0AA
:10133000800F1FD101EBC101890001F51471014437
:10134000043103EBC30300EB8303002283F855222F
:1013500001238B700D7094F89434012B20D001235D
:1013600084F89434206802F0B6FC85B1002084F83B
:10137000940438BD05EBC5018900103101440431E6
:1013800005EBC50300EB830301225A75E0E704F285
:101390009C42A179206802F097FDE7E70120E8E789
:1013A0000220E6E701F00F0302799A4230D310B52C
:1013B000044611F0800F1ED103EBC301890001F533
:1013C00014710144043103EBC30200EB82020020DC
:1013D00082F8550200228A700B7094F89434012B25
:1013E00018D0012384F89434206802F0A1FC002076
:1013F00084F8940410BD03EBC3018900103101444B
:10140000043103EBC30200EB820201205075E1E7D7
:10141000012070470220EDE708B511F0800F0CD1D4
:1014200001F00F0101EBC101890001F514710144C4
:101430000431006802F094FA08BD01F00F0101EBDD
:10144000C1018900103101440431F2E72DE9F04F68
:1014500083B004460568284602F0F3FC10B103B0DF
:10146000BDE8F08F0646206802F0BCFC0028F6D0EC
:1014700005F50067BB68C3F30D23C4F8D4342068B6
:1014800002F0B0FC10F0020F04D02268536903F0A0
:1014900002035361206802F0A5FC10F0100F16D073
:1014A0002268936923F010039361D5F8208008F037
:1014B0000F0908F4F013B3F5802F6AD0B3F5402F6D
:1014C00000F08D802268936943F0100393612068D7
:1014D00002F088FC10F4002F40F09380206802F0A6
:1014E00081FC10F4802F40F0FC80206802F07AFC30
:1014F0000028C0F27D81206802F074FC10F4006FB7
:1015000009D0BB6813F0010F40F08A81226853694B
:1015100003F400635361206802F064FC10F0006F74
:1015200015D02268536903F00063536194F8CC34FA
:10153000002B40F07981012184F8CC1423685B6D85
:10154000C3F38303C4F8D034204600F0BDFA20680A
:1015500002F048FC10F4805F40F06A81206802F0DD
:1015600041FC10F4005F40F0B681206802F03AFCC4
:1015700010F0080F40F0C781206802F033FC10F033
:10158000800F00F0DA81AB6923F08003AB610126A4
:10159000C3E147F6F07318EA030F93D04FEA181A25
:1015A0004FEAC903019309EBC90B04EB8B0BC8F39A
:1015B0000A12DBF86012284602F06AFBDBF86032A0
:1015C000CAF30A0A5344CBF86032DBF86832019A56
:1015D0004A4404EB82025344C2F8683272E708229C
:1015E00004F29C41284602F053FB09EBC90304EBCB
:1015F0008303D3F86822C8F30A184244C3F8682268
:1016000060E7206802F0F2FB8046B14635E005EB6A
:1016100049130122C3F8082B49462046FFF732FD43
:101620003CE005EB49130822C3F8082B4946204645
:10163000FFF7AAFD35E009EBC90304EB830393F838
:101640005732012B41D005EB49130222C3F8082B76
:101650001AF0200F04D005EB49132022C3F8082B01
:101660001AF4005F05D005EB49134FF40052C3F89C
:10167000082B09F101094FEA5808B8F1000F3FF4AF
:101680002DAF18F0010FF4D05FFA89FB594620689E
:1016900002F0BCFB824610F0010FB8D11AF0080F1F
:1016A000BFD11AF0100F04D005EB49131022C3F874
:1016B000082B1AF0020FCBD06B6913F0800FBAD051
:1016C0007B6843F480637B60B5E709EBC90304EBF7
:1016D0008303002283F857225946204604F054F829
:1016E000B1E7206802F08AFB8046B14625E0594602
:1016F000204604F005F81AF0080F04D005EB491352
:101700000822C3F808291AF0100F04D005EB49137A
:101710001022C3F808291AF0400F04D005EB491332
:101720004022C3F808291AF0020F40D11AF0800FA6
:1017300059D109F101094FEA5808B8F1000F3FF4F7
:10174000D4AE18F0010FF4D05FFA89FB5946206837
:1017500002F065FB824610F0010FCCD009F00F02B9
:10176000012101FA02F27B6B23EA02037B6305EBA2
:101770004913C3F80819A3798B42B8D109EBC903FF
:1017800004EB83031A6AD9690A441A62B9F1000F9B
:10179000ADD109EBC90304EB83035B6A002BA6D12F
:1017A00004F29C420121206802F08EFB9FE749462B
:1017B000284601F061FF09EBC90304EB8303DB7DDD
:1017C000012B05D005EB49130222C3F80829ADE728
:1017D00009EBC90304EB83030022DA75594620465E
:1017E00003F0D8FFEEE749462046FFF719FBA0E7D4
:1017F0007B6823F001037B6094F8CC34012B08D084
:10180000204603F0BBFF2268536903F00043536195
:1018100071E6002184F8CC14204600F055F9F2E777
:10182000204603F093FF71E6204603F08FFF8EE61B
:101830007B6823F001037B601021206801F01CFF0E
:101840001AE005EB46134FF67F31C3F80819D3F8B9
:10185000002922F40012C3F80029C3F8081BD3F8AA
:10186000002B22F40012C3F8002BD3F8002B42F017
:101870000062C3F8002B01362379B342E1D8FB693B
:1018800043F00113FB61E37BDBB1D7F8843043F015
:101890000B03C7F884307B6C43F00B037B64D5F8F3
:1018A000003823F4FE63C5F8003804F29C42A179A5
:1018B000206802F009FB2268536903F480535361E6
:1018C0004CE67A6942F22B0313437B613B6943F098
:1018D0000B033B61E3E7206802F0E8FA206801F0BF
:1018E000E1FFE071266800F033FF0146E2793046FF
:1018F00001F044FE204603F014FF2268536903F40C
:101900000053536131E6204603F005FF2268536916
:1019100003F0080353612FE601362379B3420CD953
:1019200006EBC60304EB830393F85732012BF3D184
:10193000F1B22046FFF770FDEEE7206802F052FAA0
:1019400010F4801F25D1206802F04CFA10F4001F1B
:1019500058D0012326E001362379B3421BD905EB89
:101960004613D3F8002906EBC60304EB83031B7E62
:10197000012BF0D1002AEEDA06EBC60304EB830359
:101980000122DA7566F07F01C9B22046FFF744FDF7
:10199000E1E70126E0E72268536903F4801353610D
:1019A000D1E7013322799A4227D905EB4312D2F8C5
:1019B000001B03EBC30204EB820292F85822012AB7
:1019C000EFD10029EDDAD4F8D42482EA114212F0E2
:1019D000010FE6D103EBC30204EB8202012182F87E
:1019E0005712AA6942F08002AA616A6912F0800F58
:1019F000D7D17B6843F400737B602268536903F49A
:101A000000135361206802F0EDF910F0804F10D1FF
:101A1000206802F0E7F910F0040F3FF420AD2368CE
:101A20005D6815F0040F0DD1226853682B43536095
:101A300015E5204603F0B4FE2268536903F08043A5
:101A40005361E5E7204603F0B1FEEDE710B404680A
:101A5000606A31B940EA0240A06200205DF8044BA0
:101A600070478C46A36A00EB1340002308E003F1A3
:101A7000400104EB8101496800EB11400133DBB206
:101A80000CF1FF318B42F2D340EA02400CF13F01EE
:101A900004EB81046060E0E703685962002070474E
:101AA000034602680121C0F8D814002083F8CC0452
:101AB000936943F000639361516D024B0B4353658F
:101AC000704700BF030000107047000038B504469F
:101AD000224BDB6803F00703062B07D01F4BDB68A4
:101AE00003F03F03834236D0012038BD1B4AD36840
:101AF00023F03F030343D360FEF7BAFF0546174BBD
:101B00005B6813F4005F07D1FEF7B2FF431BB3F528
:101B10007A7FF4D90120E8E72E2C18BF1E2C08D0BC
:101B20002D2C14BF002301231D2C02D00BB9002043
:101B3000DBE7FEF79DFF0446084BDB6813F4803FAC
:101B400007D1FEF795FF001BB0F57A7FF4D901208D
:101B5000CBE70020C9E70020C7E700BF00480258D4
:101B6000024AD36843F08073D3607047004802583C
:101B7000002800F0398338B50446036813F0010FDC
:101B800025D0944A136903F03803926A102B15D0BC
:101B9000182B0FD06368B3F5803F3FD0002B53D193
:101BA0008C4B1A6822F480321A601A6822F4802260
:101BB0001A6038E002F00302022AEBD1854B1B6861
:101BC00013F4003F03D06368002B00F00F832368F9
:101BD00013F0020F00F0A1807E4A1369926A13F09D
:101BE00038035AD0182B55D0E368002B00F0DE8064
:101BF00078490A6822F0190213430B60FEF738FF98
:101C00000546744B1B6813F0040F40F0AD80FEF7DF
:101C10002FFF401B0228F4D90320EEE26D4A13681F
:101C200043F48033136063682BB3FEF721FF05464E
:101C3000684B1B6813F4003FC9D1FEF719FF401B26
:101C40006428F5D90320D8E2B3F5A02F09D0614B61
:101C50001A6822F480321A601A6822F480221A600C
:101C6000E1E75C4B1A6842F480221A601A6842F479
:101C700080321A60D7E7FEF7FBFE0546554B1B681E
:101C800013F4003FA3D0FEF7F3FE401B6428F5D900
:101C90000320B2E212F0030FA6D14E4B1B6813F0E3
:101CA000040F03D0E368002B00F0A282494A1368B6
:101CB00023F01903E1680B431360FEF7D9FE0546D4
:101CC000444B1B6813F0040F06D1FEF7D1FE401BF6
:101CD0000228F5D9032090E2FEF7E4FE41F2030367
:101CE000984212D82269402A07D03A494B6823F417
:101CF0007C3343EA02334B600FE0364A536823F4E7
:101D00007C3343F40033536007E0324A536823F0D6
:101D1000FE43216943EA01635360236813F0100F07
:101D200000F088802B4A136903F03803926A082B6D
:101D300056D0182B50D0E369002B00F0B880254A0C
:101D4000136843F080031360FEF792FE0546214BB3
:101D50001B6813F4807F40F08880FEF789FE401BEB
:101D60000228F4D9032048E2FEF79CFE41F2030367
:101D7000984212D82269402A07D016494B6823F4AA
:101D80007C3343EA02334B60C7E7124A536823F4BB
:101D90007C3343F400335360BFE70E4A536823F0AB
:101DA000FE43216943EA01635360B6E7094A1368B9
:101DB00023F001031360FEF75BFE0546054B1B682D
:101DC00013F0040FA9D0FEF753FE401B0228F5D9EB
:101DD000032012E20044025802F00302012AAAD1B1
:101DE000A14B1B6813F4807F03D0E369802B40F084
:101DF0000182FEF757FE41F20303984212D8226A8D
:101E0000202A07D098494B6823F0F84343EA8263BD
:101E10004B600FE0944A536823F0F84343F080434B
:101E2000536007E0904AD36823F07C53216A43EA69
:101E30000163D360236813F0080F60D06369002B3F
:101E400049D0894A536F43F001035367FEF710FEF0
:101E50000546854B5B6F13F0020F50D1FEF708FE6D
:101E6000401B0228F5D90320C7E1FEF71BFE41F213
:101E70000303984212D8226A202A07D07A494B6875
:101E800023F0F84343EA82634B60D3E7764A536812
:101E900023F0F84343F080435360CBE7724AD368A2
:101EA00023F07C53216A43EA0163D360C2E76E4AA0
:101EB000136823F080031360FEF7DAFD05466A4BD2
:101EC0001B6813F4807FB5D0FEF7D2FD401B0228BB
:101ED000F5D9032091E1644A536F23F0010353675E
:101EE000FEF7C6FD0546604B5B6F13F0020F06D090
:101EF000FEF7BEFD401B0228F5D903207DE12368D3
:101F000013F0200F29D0A3699BB1574A136843F4FB
:101F100080531360FEF7ACFD0546534B1B6813F46A
:101F2000005F1AD1FEF7A4FD401B0228F5D903205B
:101F300063E14D4A136823F480531360FEF798FD64
:101F40000546494B1B6813F4005F06D0FEF790FD71
:101F5000401B0228F5D903204FE1236813F0040F3A
:101F600021D1636A002B00F047813F4A126902F0D9
:101F70003802182A00F0EE80022B79D03A4A136812
:101F800023F080731360FEF773FD0446364B1B6825
:101F900013F0007F00F0DC80FEF76AFD001B0228D2
:101FA000F4D9032029E1314A136843F480731360A4
:101FB000FEF75EFD05462D4B1B6813F4807F06D1AE
:101FC000FEF756FD401B6428F5D9032015E1A368F0
:101FD000012B0AD00BBB244B1A6F22F001021A67A7
:101FE0001A6F22F004021A6704E01F4A136F43F0CD
:101FF00001031367A36833B3FEF73AFD05461A4B96
:102000001B6F13F0020FACD1FEF732FD401B41F203
:1020100088339842F3D90320EFE0052B09D0124B07
:102020001A6F22F001021A671A6F22F004021A676F
:10203000E0E70D4B1A6F42F004021A671A6F42F084
:1020400001021A67D6E7FEF713FD0546064B1B6F24
:1020500013F0020F85D0FEF70BFD401B41F28833D1
:102060009842F3D90320C8E00044025800480258BF
:10207000694A136823F080731360FEF7F9FC054684
:10208000654B1B6813F0007F06D0FEF7F1FC401B88
:102090000228F5D90320B0E05F4B996A5F4A0A40F5
:1020A000A16AE06A41EA00110A439A62226B013A8E
:1020B000C2F30802616B0139490289B20A43A16B7C
:1020C0000139090401F4FE010A43E16B01390906F3
:1020D00001F0FE410A431A63DA6A22F00102DA6271
:1020E0005A6B6FF3CF02A16C42EAC1025A63DA6AFB
:1020F00022F00C02216C0A43DA62DA6A22F0020250
:10210000616C0A43DA62DA6A42F48032DA62DA6ACD
:1021100042F40032DA62DA6A42F48022DA62DA6A7F
:1021200042F00102DA621A6842F080721A60FEF729
:102130009FFC0446384B1B6813F0007F06D1FEF766
:1021400097FC001B0228F5D9032056E0002054E03C
:10215000002052E0304A916A106B012B4ED001F002
:102160000303A26A93424BD1C1F30511E36A99427A
:1021700048D1C0F30802236B013B9A4244D1C0F31B
:102180004622636B013B9A4240D1C0F30642A36BE7
:10219000013B9A423CD1C0F30660E36B013B98429D
:1021A00038D11D4B5B6BC3F3CC03A26C9A4201D1B7
:1021B000002022E0184AD36A23F00103D362FEF71D
:1021C00057FC0546FEF754FCA842FBD0124A536B5D
:1021D0006FF3CF03A16C43EAC1035363D36A43F0A7
:1021E0000103D362002008E001207047012004E0D1
:1021F000012002E0012000E0002038BD0120FCE7C2
:102200000120FAE70120F8E70120F6E70120F4E7D2
:102210000120F2E70120F0E7004402580CFCFFFF28
:1022200070B588B00C46154610BB234ED6F8E0308A
:1022300043F00103C6F8E030D6F8E03003F00103C4
:102240000193019B4FF480730393022304930323B0
:10225000069300230593079303A91848FEF7A2FCF1
:10226000336923F0FE7325431D43356108B070BD0B
:10227000114ED6F8E03043F00403C6F8E030D6F84B
:10228000E03003F004030293029B4FF400730393C6
:10229000022304930323069300230593079303A9C2
:1022A0000748FEF77FFC336923F07E4344EAC514F8
:1022B0001C433461DAE700BF0044025800000258B2
:1022C00000080258754B1B6903F03803102B00F00F
:1022D000DE80182B0FD0002B40F0DB806F4B1B688B
:1022E00013F0200F00F0D7806C4B1B68C3F3C103C1
:1022F0006B48D840704710B4684B9A6A02F00302EA
:102300009C6AC4F30510D96A01F001015B6BC3F349
:10231000CC0301FB03F307EE903AF8EE677A14F46E
:102320007C7F77D0012A4AD0022A76D0002A40F05A
:1023300091805A4B1B6813F0200F23D057490A682D
:10234000C2F3C102564BD34007EE103AF8EE476A8B
:1023500007EE100AB8EE476A86EE867A0B6BC3F377
:10236000080306EE903AF8EE666A9FED4E6A67EE55
:10237000867A76EEA77AF7EE006A77EEA67A27EEEF
:10238000277A38E007EE100AF8EE476A9FED466AB2
:1023900086EE267A414B1B6BC3F3080306EE903A98
:1023A000F8EE666A9FED3F6A67EE867A76EEA77A68
:1023B000F7EE006A77EEA67A27EE277A1BE007EEA3
:1023C000100AF8EE476A9FED396A86EE267A334B9B
:1023D0001B6BC3F3080306EE903AF8EE666A9FEDB6
:1023E000316A67EE867A76EEA77AF7EE006A77EEC4
:1023F000A67A27EE277A294B1B6BC3F346230133BA
:1024000007EE903AF8EE677AC7EE276AFCEEE67AB6
:1024100017EE900A5DF8044B704707EE100AF8EECD
:10242000476A9FED236A86EE267A1C4B1B6BC3F32B
:10243000080306EE903AF8EE666A9FED1A6A67EEB8
:10244000867A76EEA77AF7EE006A77EEA67A27EE1E
:10245000277AD0E707EE100AF8EE476A9FED136A75
:1024600086EE267A0D4B1B6BC3F3080306EE903AFB
:10247000F8EE666A9FED0B6A67EE867A76EEA77ACB
:10248000F7EE006A77EEA67A27EE277AB3E70948D7
:102490007047094870470248704700BF004402581F
:1024A0000090D003000000390024744C0024744ACA
:1024B00020BCBE4B40787D0100093D00002800F0A3
:1024C000328170B50D4604469B4B1B6803F00F0329
:1024D0008B420BD2984A136823F00F030B4313600F
:1024E000136803F00F038B4240F01F81236813F041
:1024F000040F0CD02269914B9B6903F070039A4240
:1025000005D98E498B6923F070031A438A612368C9
:1025100013F0080F0CD06269884BDB6903F070037D
:102520009A4205D98549CB6923F070031A43CA61E1
:10253000236813F0100F0CD0A269804BDB6903F401
:10254000E0639A4205D97D49CB6923F4E0631A43DD
:10255000CA61236813F0200F0CD0E269774B1B6A25
:1025600003F070039A4205D974490B6A23F0700393
:102570001A430A62236813F0020F0CD0E2686F4B13
:102580009B6903F00F039A4205D96C498B6923F0CC
:102590000F031A438A61236813F0010F41D0674A81
:1025A000936923F47063A1680B4393616368022B02
:1025B0000AD0032B27D0012B2CD0604A126812F0CE
:1025C000040F06D10120ADE0126812F4003F00F0C4
:1025D000AE805A490A6922F0070213430B61FEF7E5
:1025E00047FA0646554B1B6903F038036268B3EBA4
:1025F000C20F16D0FEF73CFA801B41F28833984296
:10260000F0D903208EE04D4A126812F0007FE0D12D
:10261000012087E0494A126812F4807FD9D1012055
:1026200080E0236813F0020F0CD0E268434B9B69F3
:1026300003F00F039A4205D240498B6923F00F0340
:102640001A438A613C4B1B6803F00F03AB420AD963
:10265000394A136823F00F032B431360136803F008
:102660000F03AB4265D1236813F0040F0CD022692D
:10267000324B9B6903F070039A4205D22F498B6954
:1026800023F070031A438A61236813F0080F0CD0FB
:1026900062692A4BDB6903F070039A4205D227492D
:1026A000CB6923F070031A43CA61236813F0100F3B
:1026B0000CD0A269214BDB6903F4E0639A4205D296
:1026C0001E49CB6923F4E0631A43CA61236813F0FF
:1026D000200F0CD0E269194B1B6A03F070039A4279
:1026E00005D216490B6A23F070031A430A62FFF7FA
:1026F000E9FD12498B69C3F30323114AD35C03F04C
:102700001F03D8408B6903F00F03D35C03F01F0352
:1027100020FA03F30B4A13600B4B18600B4B18683D
:10272000FEF744F970BD012070470120FAE701204F
:10273000F8E70120F6E700BF0020005200440258ED
:102740006C6700080000002404000024140000242A
:1027500008B5FFF7B7FD0B4A9369C3F303230A4992
:10276000CB5C03F01F0320FA03F3926902F00F021F
:10277000885C00F01F0023FA00F0044A1060044A4D
:10278000136008BD004402586C6700080000002474
:1027900004000024404B9B6A03F00303032B79D011
:1027A00070B505460E463C4A136823F080631360FB
:1027B000FEF75EF90446384B1B6813F0006F06D035
:1027C000FEF756F9031B022BF5D9032070BD324BDF
:1027D0009A6A22F47C32296842EA01329A626A6873
:1027E000013AC2F30802A9680139490289B20A43D1
:1027F000E9680139090401F4FE010A432969013934
:10280000090601F0FE410A439A63DA6A22F0C00227
:1028100069690A43DA62DA6A22F02002A9690A4386
:10282000DA62DA6A22F01002DA62DA6B6FF3CF0250
:10283000E96942EAC102DA63DA6A42F01002DA6256
:10284000C6B91A46DB6A43F40023D362124A1368FE
:1028500043F080631360FEF70BF904460E4B1B68D0
:1028600013F0006F14D1FEF703F9001B0228F5D90D
:102870000320ABE7012E05D0074AD36A43F40013C7
:10288000D362E3E7044AD36A43F48013D362DDE7FB
:1028900000209BE70120704700440258404B9B6A90
:1028A00003F00303032B79D070B505460E463C4A6E
:1028B000136823F080531360FEF7DAF80446384BB0
:1028C0001B6813F0005F06D0FEF7D2F8031B022B43
:1028D000F5D9032070BD324B9A6A22F07C722968C8
:1028E00042EA01529A626A68013AC2F30802A96890
:1028F0000139490289B20A43E9680139090401F43E
:10290000FE010A4329690139090601F0FE410A4323
:102910001A64DA6A22F4406269690A43DA62DA6A9E
:1029200022F40072A9690A43DA62DA6A22F4807238
:10293000DA625A6C6FF3CF02E96942EAC1025A6463
:10294000DA6A42F48072DA62C6B91A46DB6A43F484
:102950008003D362124A136843F080531360FEF77A
:1029600087F804460E4B1B6813F0005F14D1FEF786
:102970007FF8001B0228F5D90320ABE7012E05D014
:10298000074AD36A43F08073D362E3E7044AD36A09
:1029900043F40003D362DDE700209BE7012070478A
:1029A00000440258F8B50446036813F0006F30D0B5
:1029B000C36EB3F5001F26D00ED8ABB1B3F5801FA0
:1029C00007D102210830FFF7E5FE054695B12E46F6
:1029D00021E0012635461EE0B3F5401F01D1002558
:1029E00008E00126354616E0974AD36A43F40033DF
:1029F000D3620025944A136D23F44013E16E0B4318
:102A00001365002607E002212830FFF747FF05463F
:102A1000DCE700263546236813F4807F27D0E36D7A
:102A2000042B20D8DFE803F0031118080800864AB9
:102A3000D36A43F40033D362C5B9834A136D23F0DC
:102A40000703E16D0B43136511E0002104F1080059
:102A5000FFF7A0FE0546EFE7002104F12800FFF78D
:102A60001DFF0546E8E70126354600E02E462368AF
:102A700013F4007F25D0236E802B37D00CD89BB168
:102A8000402B06D1002104F10800FFF783FE054624
:102A90000FE00126354614E0C02B0AD0B3F5807F45
:102AA00007D0012635460CE0674AD36A43F4003369
:102AB000D36215BB644A136D23F4E073216E0B439C
:102AC0001365236813F4806F33D0D4F8AC30B3F5BA
:102AD000800F43D016D8F3B1B3F5001F0FD10021FA
:102AE00004F10800FFF756FE054619E0002104F145
:102AF0002800FFF7D3FE0546DBE72E46E1E7012677
:102B0000354616E0B3F5C00F0AD0B3F5000F07D075
:102B1000012635460DE04C4AD36A43F40033D362B4
:102B20001DBB494A936D23F46003D4F8AC100B43EA
:102B30009365236813F4006F3CD0D4F8B030B3F140
:102B4000007F2FD016D8F3B1B3F1807F0FD10021D1
:102B500004F10800FFF71EFE054619E0002104F10C
:102B60002800FFF79BFE0546DAE72E46E1E701263F
:102B700035461FE0B3F1407F0AD0B3F1806F07D034
:102B80000126354616E0304AD36A43F40033D36257
:102B90007DB92D4A936D23F0E063D4F8B0100B4358
:102BA000936507E0002104F12800FFF777FE054652
:102BB000EEE72E46236813F0007F13D0E36C202B42
:102BC0002CD026D833B1102B20D11F4AD36A43F41E
:102BD0000033D3624DBB1C4AD36C23F03003E16C4D
:102BE0000B43D364236813F4805F3CD0636EB3F56A
:102BF000005F54D01ED84BB3B3F5805F17D10021CE
:102C000004F10800FFF7C6FD054624E0012635461D
:102C1000E8E7302BDED001263546E3E7022104F158
:102C20000800FFF7B7FD0546D4E72E46DAE7012690
:102C3000354618E0B3F5405F0DD0B3F5804F0AD0AC
:102C4000012635460FE000BF00440258834AD36A8C
:102C500043F40033D3624DBB804A136D23F4E04349
:102C6000616E0B431365236813F4005F37D0A36EC6
:102C7000B3F5003F2BD01ED843B1B3F5803F17D139
:102C8000012104F10800FFF785FD054635BB734AB5
:102C9000136D23F4E023A16E0B4313651FE00021A5
:102CA00004F12800FFF7FAFD0546D4E72E46DAE7DF
:102CB0000126354613E0B3F5802FE7D0B3F5A02FFA
:102CC000E4D0B3F5403FE1D00126354607E00121CD
:102CD00004F12800FFF7E2FD0546D7E72E462368FA
:102CE00013F4804F30D0D4F8B430B3F1005F23D068
:102CF00016D843B1B3F1805F0FD1012104F1080070
:102D0000FFF748FD0546F5B9544A936D23F0E043BB
:102D1000D4F8B4100B43936516E00126354613E052
:102D2000B3F1804FEFD0B3F1A04FECD0B3F1405FDF
:102D3000E9D00126354607E0012104F12800FFF71C
:102D4000ADFD0546DFE72E46236813F0806F17D0F0
:102D5000236D43B1B3F5807F0ED1012104F108004A
:102D6000FFF718FD054655B93C4AD36C23F4807330
:102D7000216D0B43D36403E00126354600E02E4667
:102D8000236813F4004F17D0636FB3F1805F06D050
:102D9000B3F1005F1BD03BB1012635460CE02F4A52
:102DA000D36A43F40033D362C5B92C4A136D23F0C0
:102DB0004053616F0B431365236813F0807F1CD071
:102DC000A36C032B45D8DFE803F0100B3D10012165
:102DD00004F10800FFF7DEFC0546E5E72E46EBE7C9
:102DE0001E4AD36A43F40033D362ADBB1B4AD36C93
:102DF00023F00303A16C0B43D364236813F4800F07
:102E00002ED1236813F0010F00F0A780D4F8803092
:102E1000282B00F2A080DFE803F08D9E9E9E9E9EF0
:102E20009E9E879E9E9E9E9E9E9E979E9E9E9E9EE0
:102E30009E9E8D9E9E9E9E9E9E9E8D9E9E9E9E9ED4
:102E40009E9E8D00022104F10800FFF7A3FC0546B9
:102E5000CBE701263546D0E72E46CEE700440258A0
:102E60005A4A136843F480731360FDF701FE074666
:102E7000564B1B6813F4807F05D1FDF7F9FDC01B8D
:102E80006428F5D90325002D4AD1514B1B6FD4F886
:102E9000B820534013F4407F0CD04D4B1A6F22F4EE
:102EA0004072196F41F480311967196F21F4803134
:102EB00019671A67D4F8B830B3F5807F15D08DBB89
:102EC000D4F8B83003F44072B2F5407F1ED0404AC7
:102ED000136923F47C5313613D490B6FD4F8B82078
:102EE000C2F30B0213430B678BE7FDF7C1FD0746E7
:102EF000374B1B6F13F0020FE1D1FDF7B9FDC01B7B
:102F000041F288339842F3D90325D8E73048026963
:102F100022F47C522F4901EA131313430361DBE7C8
:102F20002E466EE72E466CE7012104F10800FFF7FC
:102F300031FC0546EDB9264A536D23F03803D4F829
:102F400080100B43536508E0012104F12800FFF7CE
:102F5000A5FC0546EEE701263546236813F0020F6F
:102F600017D0E36F052B2CD8DFE803F00B05240BFB
:102F70000B0B2E46F1E7012104F10800FFF70AFCD4
:102F800005460DBB124A536D23F00703E16F0B4357
:102F90005365236813F0040F2FD0D4F89830052B15
:102FA00000F20E81DFE813F01E00180005011E007C
:102FB0001E001E00012104F12800FFF76FFC0546EA
:102FC000DFE701263546E4E72E46E2E700480258EF
:102FD00000440258CFFFFF00012104F10800FFF771
:102FE000D9FB0546002D40F0EE80B64A936D23F0E4
:102FF0000703D4F898100B439365236813F0200F50
:103000001DD0D4F89430B3F1005F00F0F08000F2EE
:10301000DF804BB1B3F1805F40F0D780002104F135
:103020000800FFF7B7FB0546002D40F0E780A54AF2
:10303000536D23F0E043D4F894100B435365236899
:1030400013F0400F1DD0D4F8A030B3F5006F00F09E
:10305000E98000F2D8804BB1B3F5806F40F0D080AA
:10306000002104F10800FFF795FB0546002D40F014
:10307000E080944A936D23F4E053D4F8A0100B43FE
:103080009365236813F0800F1DD0D4F8A430B3F5F6
:10309000804F00F0E28000F2D1804BB1B3F5005FC9
:1030A00040F0C980002104F10800FFF773FB0546DA
:1030B000002D40F0D980834A936D23F46043D4F807
:1030C000A4100B439365236813F0080F0DD0D4F8B8
:1030D0008830B3F5805F00F0C9807A4A536D23F4DD
:1030E0004053D4F888100B435365236813F0100F36
:1030F0000DD0D4F89C30B3F5807F00F0C180714AC8
:10310000936D23F44073D4F89C100B4393652368AC
:1031100013F4002F1CD0D4F8A830B3F5803F00F092
:10312000B980B3F5003F08D0002B40F0BA800021F1
:1031300004F10800FFF72EFB0546002D40F0B48097
:10314000604A936D23F44033D4F8A8100B43936581
:10315000236813F4802F1CD0D4F88C30B3F5001FF3
:1031600000F0A480B3F5401F08D0B3F5801F40F0F5
:10317000A480544AD36A43F40033D362002D40F054
:103180009F80504A536D23F44013D4F88C100B43A6
:103190005365236813F4803F00F0A380636D002B18
:1031A00000F09280B3F5803F00F0B18001263546F3
:1031B00097E0012104F12800FFF770FB054611E7B5
:1031C0000126354619E72E4617E70126354636E72C
:1031D000B3F1804F3FF428AFB3F1A04F3FF424AFD9
:1031E000B3F1405F3FF420AF0126354627E70221C7
:1031F00004F12800FFF752FB054615E72E461EE7AF
:10320000012635463DE7B3F5805F3FF42FAFB3F5B8
:10321000A05F3FF42BAFB3F5406F3FF427AF01261B
:1032200035462EE7022104F12800FFF737FB05465B
:103230001CE72E4625E70126354644E7B3F5004F47
:103240003FF436AFB3F5204F3FF432AFB3F5C04F84
:103250003FF42EAF0126354635E7022104F1280060
:10326000FFF71CFB054623E72E462CE7022104F15D
:103270002800FFF713FB00283FF42FAF01262CE7AF
:10328000022104F12800FFF709FB00283FF437AFC3
:10329000012634E7022104F12800FFF7FFFA054672
:1032A0004BE70126354653E72E4651E7012104F14D
:1032B0002800FFF7F3FA054660E70126354668E780
:1032C0002E4666E7004402586F4AD36A43F400333F
:1032D000D3621DBB6C4AD36C23F48033616D0B4306
:1032E000D364236813F0005F1AD1236813F4003FFE
:1032F00032D0D4F88430B3F5807F1DD019D9B3F51E
:10330000007F1ED0B3F5407F1BD0012624E00221B0
:1033100004F10800FFF73EFA0546DAE72E46E0E73B
:10332000022104F12800FFF7B9FA0028DDD00126B8
:10333000DBE733B101260FE0534AD36A43F400338D
:10334000D36245B9504A536D23F44073D4F88410C6
:103350000B43536500E02E46236813F4801F06D00C
:10336000494A136D23F00043A16F0B431365236893
:1033700013F0805F07D0444A136923F48043D4F8E4
:10338000BC100B431361236813F4001F06D03E4AA0
:10339000136D23F08073216F0B431365236813F0C3
:1033A000804F09D0384B1A6922F400421A611A6919
:1033B000D4F8C0100A431A612368002B06DA324A97
:1033C000D36C23F04053A16D0B43D364236813F4F3
:1033D000000F07D02C4A536D23F44003D4F890100B
:1033E0000B435365636813F0010F17D1636813F043
:1033F000020F1CD1636813F0040F21D1636813F02E
:10340000080F26D1636813F0100F2BD1636813F0F7
:10341000200F30D106B101263046F8BD002104F15D
:103420000800FFF7B7F90028E0D00646DEE70121E3
:1034300004F10800FFF7AEF90028DBD00646D9E713
:10344000022104F10800FFF7A5F90028D6D00646AE
:10345000D4E7002104F12800FFF720FA0028D1D09A
:103460000646CFE7012104F12800FFF717FA0028EC
:10347000CCD00646CAE7022104F12800FFF70EFA75
:103480000028C7D00126C7E70044025882B00023B5
:103490000193019B01330193019BB3F1706F15D828
:1034A0000369002BF5DA00230193036943F001035C
:1034B0000361019B01330193019BB3F1706F08D845
:1034C000036913F0010FF4D1002000E0032002B0E3
:1034D00070470320FBE7000084B010B5044603A842
:1034E00080E80E009DF81130012B1FD1A36B23F44F
:1034F0008033A363E2681F4B1340E360E36823F467
:103500004013E3609DF81830012B0AD02046FFF7E6
:10351000BDFF9DF80E30012B1CD0BDE8104004B05B
:103520007047E36843F48013E360EFE7E36843F038
:103530004003E3602046FFF7A9FF9DF8153023B94B
:10354000A36B43F48033A363E3E7A36B23F48033DB
:10355000A363DEE7E36D9BB2E365E26D064B1343C5
:10356000E365A36843F00603A360A36843F0200368
:10357000A360D2E7BFFFBDFF0000EE03022A0AD01E
:103580000922C36823F47053C360C36843EA8223EB
:10359000C36000207047204B0B44204A934229D936
:1035A0001F4B0B441F4A934226D91F4B0B441F4A03
:1035B000934223D91E4B0B441E4A934220D31E4BE9
:1035C0000B441E4A93421DD91D4B0B441D4A934286
:1035D0001AD31D4B0B441D4A934217D31C4B0B446B
:1035E0001C4A934214D31C4B0B441C4A934211D2E5
:1035F0000722C6E70F22C4E70E22C2E70D22C0E76A
:103600000C22BEE70B22BCE70A22BAE70922B8E780
:103610000822B6E70622B4E7405327FFFF340C0028
:10362000401E1BFF3F420F0000DC0BFF7F4F1200CC
:10363000808CF9FE20D6130060B6E5FE5FE316002D
:1036400000D3CEFE40771B00C05BB3FEC0912100CB
:1036500000CA91FE20753800E05459FEE09C4100FC
:10366000836843F00103836000207047836823F080
:10367000010383600020704782B000230193019B07
:1036800001330193019BB3F1706F15D80369002BCF
:10369000F5DA00230193890141F020010161019BCA
:1036A00001330193019BB3F1706F08D8036913F0E4
:1036B000200FF4D1002000E0032002B07047032067
:1036C000FBE782B000230193019B01330193019B2F
:1036D000B3F1706F13D80369002BF5DA002301935F
:1036E00010230361019B01330193019BB3F1706FC0
:1036F00008D8036913F0100FF4D1002000E0032074
:1037000002B070470320FBE7D0F800381943C0F837
:10371000001800207047000084B0F8B5044607A8E0
:1037200080E80E00002306E003F1400204EB820271
:103730000021516001330E2BF6D99DF8266006BB9F
:10374000D4F8043843F00203C4F80438A36B23F41C
:103750000013A363236843F040032360236843F00E
:10376000800323600023C4F8003E9DF82130012B24
:1037700011D19DF81F304BB900212046FFF7C4FF3F
:103780000DE0A36B43F40013A363EBE70121204694
:10379000FFF7BAFF03E003212046FFF7B5FF102132
:1037A0002046FFF769FF054600B101252046FFF7D7
:1037B00088FF00B1012504F5006C0023CCF810301F
:1037C000CCF81430CCF81C300AE0CBB94FF00060D4
:1037D000C2F8000900220A614FF67F328A60013385
:1037E0009DF81C10994210D904EB431202F51061A8
:1037F000D2F800090028E8DB0020C2F80009E9E758
:103800004FF09040C2F80009E4E700230AE0BBB1A2
:103810004FF09047C2F8007B002202614FF67F32E2
:1038200082600133994210D904EB431202F53060F3
:10383000D2F8007B002FEADB0027C2F8007BEBE721
:103840004FF00067C2F8007BE6E7DCF8103023F4A5
:103850008073CCF810300023A3616FF08043636164
:103860009DF81E301BB9A36943F01003A361A26940
:103870000A4B1343A3619DF822301BB1A36943F0A7
:103880000803A361012E04D02846BDE8F84004B027
:103890007047A269024B1343A361F5E700383C80EF
:1038A00004000040D0F8083803F00603022B04D0CF
:1038B000062B04D02BB9002070470220704702204D
:1038C00070470F207047000010B591F800C04B788A
:1038D000012B21D000F5006ED0F81C380CF00F043D
:1038E0000122A24043EA0243C0F81C3800EB4C100E
:1038F000D0F8003B13F4004F0CD1D0F8002B8B68AC
:10390000C3F30A03097943EA81431A43134B134370
:10391000C0F8003B002010BDD0F81C280CF00F0EA2
:1039200003FA0EF39BB21343C0F81C3800EB4C10A3
:10393000D0F8003913F4004FECD1D0F800298B688F
:10394000C3F30A03097943EA814343EA8C531A43D8
:10395000024B1343C0F80039DCE700BF00800010C1
:1039600010B483B0024600230193487801280BD09D
:103970000B7802EB4313D3F8000B00282DDB00205B
:1039800003B05DF8044B70470B7802EB4313D3F898
:103990000049002C01DB0020F2E7D3F8004944F095
:1039A0000064C3F800490B7802EB4313D3F80049D5
:1039B00044F08044C3F80049019B01330193019C0A
:1039C00042F210739C42DBD80B7802EB4313D3F81E
:1039D0000039002BF0DB0020D2E7D3F8000B40F0D9
:1039E0000060C3F8000B0B7802EB4313D3F8000B15
:1039F00040F08040C3F8000B019B01330193019814
:103A000042F21073984208D80B7802EB4313D3F8B4
:103A1000003B002BF0DB0020B2E70120B0E710B53F
:103A20009DF8084084B903334FEA930E4FF0000C21
:103A300008E000EB023303F5805351F8044B1C609F
:103A40000CF1010CF445F4D3002010BDF0B583B0A7
:103A50000C784B78012B2DD000EB441C0CF5306317
:103A60001D696FF312051D611D696FF3DC451D6152
:103A7000002C40F0CE800C690CB18C680C618C6815
:103A80000C621D69C4F312042C431C611C6944F4CC
:103A900000241C61012A00F0DF800B79012B00F06B
:103AA000E180DCF8003B43F00443CCF8003B00200D
:103AB00003B0F0BD0B6973BB00EB4413D3F810598E
:103AC0006FF3DC45C3F81059D3F8105945F40025BD
:103AD000C3F81059D3F810596FF31205C3F81059F1
:103AE000012A54D000EB4414D4F8003943F00443C5
:103AF000C4F800390B79012B72D00B69002BD6D09A
:103B0000D0F83438097801F00F0101228A401343BC
:103B1000C0F83438CBE700EB441303F510631D699C
:103B20006FF312051D611D696FF3DC451D6184B9DA
:103B30000E698D68AE4200D90D611D6945F40025FE
:103B40001D611D690E69C6F3120C45EA0C051D6165
:103B5000C6E70D698E683544013DB5FBF6F51E6973
:103B60001FFA85FC494F07EAC54535431D610D79AC
:103B7000012DE6D11D6925F0C0451D611D694FEA83
:103B80004C7C0CF0C04C45EA0C051D61D9E7CB69B3
:103B90001BB100EB4412C2F814390B79012B08D089
:103BA00000EB4414D4F8003943F00443C4F800395E
:103BB0007DE7D0F8083813F4807F08D100EB441279
:103BC000D2F8003943F00053C2F80039E8E700EBBF
:103BD0004412D2F8003943F08053C2F80039DFE7CD
:103BE000D0F8083813F4807F0CD1D4F8003943F0B2
:103BF0000053C4F8003900920B8A0A78C968FFF7AD
:103C00000EFF54E7D4F8003943F08053C4F800396C
:103C1000F1E70C6954B91C698D68C5F312052C4392
:103C20001C611C6944F400241C6133E78D682C443A
:103C3000013CB4FBF5F4A4B204FB05F50D621D696B
:103C4000124E06EAC4442C431C611C690D6AC5F37C
:103C500012052C431C611DE7CA68002A3FF41DAF02
:103C60005A611AE7D0F8083813F4807F06D1DCF8DF
:103C7000003B43F00053CCF8003B12E7DCF8003B7C
:103C800043F08053CCF8003B0BE700BF0000F81F67
:103C900010B5844608464FEA920E02F00302002354
:103CA00005E00CF58051096840F8041B01337345A9
:103CB000F7D37AB10CF5805CDCF800400021CBB280
:103CC000DB0024FA03F300F8013B0131013A92B220
:103CD000002AF4D110BD0B784A78012A14D000EBE9
:103CE0004310D0F8002B002A06DB2BB1D0F8003BA4
:103CF00023F08043C0F8003BD0F8003B43F40013AE
:103D0000C0F8003B0020704700EB4310D0F80029BA
:103D1000002A06DB2BB1D0F8003923F08043C0F82D
:103D20000039D0F8003943F40013C0F80039E9E74E
:103D30000B784A78012A0ED000EB4310D0F8003BF4
:103D400023F40013C0F8003B0B79023BDBB2012BDC
:103D500015D90020704700EB4310D0F8003923F448
:103D60000013C0F800390B79023BDBB2012BF0D80D
:103D7000D0F8003943F08053C0F80039E9E7D0F8B3
:103D8000003B43F08053C0F8003BE2E7D0F8003836
:103D900023F4FE63C0F80038D0F80038090101F4BC
:103DA000FE610B43C0F8003800207047D0F8003E99
:103DB00023F00303C0F8003ED0F8043823F00203D8
:103DC000C0F8043800207047D0F8003E23F0030309
:103DD000C0F8003ED0F8043843F00203C0F80438BD
:103DE000002070474269806910407047D0F8183849
:103DF00000F50060C0691840000C7047D0F8183812
:103E000000F50060C069184080B2704700EB4111B6
:103E1000D1F8082B00F50060406910407047D0F8D9
:103E20001028D0F8343801F00F0C23FA0CF3DB0122
:103E3000DBB2134300EB411000F5106080681840BE
:103E40007047406900F00100704738B50546C36807
:103E500023F0C043C360012913D019BBC36843F0EA
:103E60008043C36000240A20FCF708FE0A34284679
:103E7000FFF7E7FF08B1C72CF5D9C82C14D00020F4
:103E800038BDC36843F00053C36000240A20FCF728
:103E9000F5FD0A342846FFF7D4FF0128EDD0C72CE2
:103EA000F4D9EAE70120EBE70120E9E7D0F800398F
:103EB0006FF30A03C0F80039D0F8043843F4807374
:103EC000C0F804380020704710B4046C154B9C42B5
:103ED00003D9D0F8003B002B16DB0024C0F8104BB0
:103EE000D0F8104B44F40024C0F8104BD0F8104B1D
:103EF00044F01804C0F8104BD0F8104B44F0C04404
:103F0000C0F8104B012903D000205DF8044B704726
:103F1000C0F8142BD0F8003B43F08023C0F8003BDE
:103F2000F2E700BF0A30544F98B108B503460020AD
:103F3000C3F8B802C3F8C402C3F8D00209B1C3F889
:103F4000B412012183F89C121A70184601F034FC57
:103F500008BD0320704710B582B00023ADF80630CD
:103F6000B9B10446C0F8B812D0F8D422CB6A43B134
:103F7000AE3250F82230DB6A0DF106009847C4F8E3
:103F8000D002D4F8D8320133C4F8D832002002B0BD
:103F900010BD0320FBE708B501F06BFC08BD10B5B0
:103FA000044601F06EFCD4F8B8321BB15B6821798D
:103FB00020469847002010BD08B5D0F8B83213B19C
:103FC0001B68984708BD0020FCE708B5D0F8B83258
:103FD0005B68984700B908BD0320FCE738B5044684
:103FE00000F2AA25284600F0A9F90123C4F894326A
:103FF000B4F8B032C4F8983294F8AA1201F01F0352
:10400000012B07D0022B0AD073B92946204600F0B5
:1040100099FB38BD2946204600F0CFFBF9E7294639
:10402000204600F00CFCF4E701F08001204601F08E
:104030003BFCEEE7F8B50446012380F89C320023F0
:10404000C0F894324360C0F8A43280F8A032D0F8AF
:10405000B832DBB15B68DBB1002198470746C8B9CD
:10406000402300221146204601F013FC0126A4F84B
:1040700064614025C4F860512B460022802120460F
:1040800001F007FCA68425623846F8BD0027E7E763
:104090000027E5E70327E3E701740020704790F865
:1040A0009C32DBB2042B04D090F89C32DBB280F857
:1040B0009D32042380F89C320020704790F89C3297
:1040C000DBB2042B01D00020704790F89D32DBB2A8
:1040D00080F89C32F7E708B590F89C32DBB2032BEE
:1040E00001D0002008BDD0F8B832002BF9D0DB6930
:1040F000002BF6D09847F4E708B5D0F8D432AE33A9
:1041000050F823205AB190F89C32DBB2032B01D037
:10411000002008BD136A23B198470020F9E7032067
:10412000F7E70020F5E708B5D0F8D432AE3350F801
:1041300023205AB190F89C32DBB2032B01D000202F
:1041400008BD536A23B198470020F9E70320F7E739
:104150000020F5E70020704708B5012380F89C3265
:10416000D0F8B83223B15B680179984710B908BD1F
:104170000020FCE70320FAE700207047002070478A
:1041800038B504460D46002942D11346D0F8942292
:10419000032A01D0084638BDD0F85C11D0F8602160
:1041A000914209D890F8AA3203F01F03012B0ED0D8
:1041B000022B1BD028460FE0891AC0F85C118A42F6
:1041C00028BF0A46194601F0CCF82846E3E790F8E4
:1041D000AE12FFF7D1FF20B994F89C32DBB2032B6B
:1041E00009D0204601F0C5F82846D4E790F8AE1271
:1041F000FFF7C4FFEFE700F1AE0354F823301A696C
:10420000002AEED0C4F8D4021B6920469847E8E79C
:1042100001F07F01FFF7B2FF90B994F89C32DBB256
:10422000032BB8D100F1AE0354F823309A69002A69
:10423000B1D0C4F8D4029B69294620469847AAE722
:104240000020A8E738B504460D4600294BD1134697
:10425000D0F89422022A07D094F8A00218B10023C3
:1042600084F8A032284638BDC269016A8A420ED855
:104270008A4218D094F89C32DBB2032B27D08021DD
:10428000204601F011FB204601F07EF8E4E7521AC7
:10429000C261194601F04EF800231A46194620461D
:1042A00001F022FBD8E783699942E3D8D0F898223D
:1042B0009342DFD20022114601F03CF80021C4F8FD
:1042C00098120B460A46204601F00EFBC4E7D4F8CC
:1042D000B832DA68002AD2D00022C4F8D422DB68CF
:1042E00020469847CBE741F08001FFF747FF90B9A0
:1042F00094F89C32DBB2032BB5D100F1AE0354F835
:1043000023305A69002AAED0C4F8D4025B6929462A
:1043100020469847A7E70020A5E70B8802781344BA
:104320000B800378184470470346002002E00130F8
:10433000C0B201331A78002AF9D170470B780370A4
:104340004B7843708B78CA7843EA022343800B7919
:104350004A7943EA022383808B79CA7943EA0223AC
:10436000C380704710B50446802101F09DFA0021FA
:10437000204601F099FA10BD70B582B004460D4692
:104380000023ADF806304A88130A013B0E2B00F2D9
:10439000D980DFE813F01C0037004B00D700D700AE
:1043A000BB00C800D700D700D700D700D700D70080
:1043B000D7000F00D0F8B432DB6923B10DF106014C
:1043C000007C98470AE02946FFF7CCFF18E0D0F8B8
:1043D000B4321B680DF10601007C9847EA88002A78
:1043E00000F0B980BDF80630002B00F0AF809A4293
:1043F00028BF1A46ADF806200146204600F08DFF82
:1044000002B070BD037C43B9D0F8B8329B6A0DF19D
:104410000600984702234370E0E7D0F8B832DB6A21
:104420000DF10600984702234370D7E7D2B2052A60
:1044300069D8DFE802F003101D2A3744D0F8B432FF
:104440005B6823B10DF10601007C9847C6E7294659
:10445000FFF788FFD4E7D0F8B4329B6823B10DF1A1
:104460000601007C9847B9E72946FFF77BFFC7E7BD
:10447000D0F8B432DB6823B10DF10601007C984717
:10448000ACE72946FFF76EFFBAE7D0F8B4321B69F4
:1044900023B10DF10601007C98479FE72946FFF7FD
:1044A00061FFADE7D0F8B4325B6923B10DF10601CD
:1044B000007C984792E72946FFF754FFA0E7D0F821
:1044C000B4329B6923B10DF10601007C984785E762
:1044D0002946FFF747FF93E706F1AE0354F8233070
:1044E0009A6B52B1C4F8D4629B6B0DF10602A978A5
:1044F0002046984700287FF471AF0136D4F8D832AF
:10450000B342E9D86AE700263046F7E7037C33B9BF
:10451000D0F8B8325B6B0DF1060098475EE729468C
:10452000FFF720FF6CE7037C43B9D0F8B8321B6B70
:104530000DF106009847072343704FE72946FFF720
:1045400011FF5DE72946FFF70DFF59E72946204691
:10455000FFF708FF54E7204600F00BFF50E738B59F
:1045600004468B88FBB9CB88EBB94B887F2B1AD8D4
:1045700003F07F0590F89C32DBB2032B0CD080F85F
:104580009E52294601F0A0F9204600F0F2FE35B116
:10459000022384F89C3209E0FFF7E4FE06E00123E1
:1045A00084F89C3202E02046FFF7DCFE38BD0000B4
:1045B00070B504460E468D782F4B1D70012D10D816
:1045C00090F89C32DBB2022B0FD0032B26D0FFF7E2
:1045D000C9FE294B19782046FFF7F7FC032528462A
:1045E00070BDFFF7BFFE0325F9E7A5B14560294679
:1045F000FFF7E2FC054638B131462046FFF7B2FE30
:10460000022384F89C32EAE7204600F0B2FE03233E
:1046100084F89C32E3E700F0ACFEE0E7CDB14168FE
:104620008D4225D0C9B2FFF7D0FC134B19786160D9
:104630002046FFF7C1FC0546B0B131462046FFF7E2
:1046400091FE21792046FFF7C0FC022384F89C32BA
:10465000C5E7022380F89C3245602946FFF7B5FC88
:10466000204600F086FEBAE7204600F082FEB6E75C
:1046700000F07FFE0025B2E77801002408B5CB8862
:10468000012B0BD190F89C32DBB2022B09D9032B02
:1046900011D10122011D00F040FE01E0FFF762FE92
:1046A00008BD5BB23BB10146002341F8083F01223F
:1046B00000F033FEF4E7FFF755FEF1E708B590F898
:1046C0009C32013B022B12D8CB88022B0CD1012348
:1046D000C360D0F8A4320BB10323C360022200F1FF
:1046E0000C0100F01AFE08BDFFF73CFEFBE7FFF7E8
:1046F00039FEF8E708B54B88012B04D0022B07D010
:10470000FFF730FE08BDC0F8A43200F032FEF9E732
:104710008B881B0A80F8A03200F02BFEF2E708B568
:1047200090F89C32013B022B09D84B88012B00D01A
:1047300008BD0023C0F8A43200F01BFEF8E7FFF725
:1047400011FEF5E738B50C7804F06004202C06D093
:10475000402C04D06CB1FFF705FE002407E0D0F830
:10476000D432AE3350F823309B6898470446204635
:1047700038BD4D78092D1DD8DFE805F012191C163B
:104780001C08051C0F0BFFF7F7FDF0E7FFF7E7FE2E
:10479000EDE7FFF70DFF0446E9E7FFF76FFFE6E7F8
:1047A000FFF78CFF2C46E2E7FFF7A4FFDFE7FFF7F8
:1047B000B6FFDCE7FFF7D6FDD9E770B505460C4636
:1047C0000B7803F06003202B07D0402B05D023B1DA
:1047D000FFF7C8FD0026304670BD95F89C32013BBE
:1047E000022B26D82179012905D921462846FFF731
:1047F000B9FD0026EFE72846FFF7BEFC68B900F1D7
:10480000AE0255F82220916889B1C5F8D4029368A8
:10481000214628469847064600E00326E388002BF9
:10482000D9D1002ED7D1284600F0A3FDD3E7032627
:10483000F4E721462846FFF795FD0026CBE72DE952
:10484000F04106460D468B88DFB20C7804F0600418
:10485000202C08D0402C06D0DCB1FFF783FD0024CB
:104860002046BDE8F08139463046FFF787FC044614
:10487000002840F0F980C6F8D40200F1AE0356F8E3
:1048800023309B68002BEBD02946304698470446DE
:10489000E6E791F80180B8F1010F31D0B8F1030FCC
:1048A00005D0B8F1000F66D0FFF75CFDD8E790F8AF
:1048B0009C32DBB2022B04D0032B11D0FFF752FD48
:1048C000CEE7002F18BF802F07D0394600F0ECFF4D
:1048D0008021304600F0E8FFC2E7FFF743FDBFE765
:1048E0004B882BB9002F18BF802F01D0CB881BB16C
:1048F000304600F03EFDB3E7394600F0D5FFF7E75C
:1049000090F89C32DBB2022B04D0032B11D0FFF7BE
:1049100029FDA5E7002F18BF802F07D0394600F0EA
:10492000C3FF8021304600F0BFFF99E7FFF71AFD73
:1049300096E74B88002B93D117F07F0F17D13046A5
:1049400000F017FD39463046FFF718FC002887D1E4
:10495000C6F8D40200F1AE0256F822209268002A6E
:1049600000F08480294630469047044678E739466F
:1049700000F0A2FFE3E790F89C22D2B2022A05D011
:10498000032A28D0FFF7EEFC444669E7002F18BF42
:10499000802F13D113F0800F14D107F07F0707EB9E
:1049A0008707B90001F5A8710144043100230B60A9
:1049B0000222304600F0B1FC444651E7FFF7D2FC3A
:1049C00044464DE707F07F0707EB8707B900103132
:1049D00001440431EAE75BB2002B20DB07F00F0251
:1049E00002EB820200EB8202B2F8642122B3002BB8
:1049F00026DB07F07F0303EB83039C0004F5A87418
:104A000034440434802F18BF002F22D100232360A8
:104A100002222146304600F080FC444620E707F0A1
:104A20000F0202EB820200EB8202928C002ADED19E
:104A3000FFF798FC444613E7FFF794FC44460FE762
:104A400007F07F0303EB83039C00103434440434E9
:104A5000D8E73946304600F0E7FE10B10123236065
:104A6000D6E700232360D3E70024F9E60446F7E6FF
:104A700000B370B50D4616460446FFF755FC0130ED
:104A80004300B3F5007F06D89BB233802B7003231D
:104A90006B7002230AE04FF40073F6E7EA54013426
:104AA0005A1CD2B20021A9540233DBB22278002A68
:104AB000F4D170BD70470000BFF34F8F0549CA683D
:104AC00002F4E062044B1343CB60BFF34F8F00BF8F
:104AD000FDE700BF00ED00E00400FA051B230380A2
:104AE00000487047240000240020704700207047D1
:104AF0000A2303800048704718000024D0F8D432FD
:104B0000B03350F82330A3B193F81C240A2A11D0F3
:104B10000A2183F81C140E2283F81424002283F83F
:104B2000152483F8162483F8172483F8181483F8BF
:104B300019247047022183F81C14002283F81424DE
:104B400083F8152483F8162483F8172483F818149F
:104B500083F819247047D0F8D432B03350F823309A
:104B6000EBB193F81C14092919D84FF41B72CA40F1
:104B700012F0010F13D0022183F81C14002283F8D5
:104B8000142483F8152483F8162483F8172483F853
:104B9000181483F81924C3F80024C3F804247047B8
:104BA000D0F8D432B03300EB83004368062907D82D
:104BB00010B5054C21461868FFF75AFF204610BD76
:104BC00000201080704700BF7C01002442880378D9
:104BD0009A4214D910B582B00446ADF80630638805
:104BE000BDF806209A4207D20DF10601FFF795FBAA
:104BF0004378212BF3D100E0002002B010BD00204B
:104C0000704770B50446D0F8D432B03350F8236002
:104C100000EB83035D68D0F8D002FFF7D7FF002DCB
:104C200018BF002E13D090B1002386F81D3483786E
:104C300013F0040F0CD0062286F81C24002386F8FB
:104C4000153486F8163486F8173486F8182470BDA3
:104C5000082286F81C24002386F8153486F81634BA
:104C600086F8173486F818242046FFF798F9FFF7DE
:104C700023FF10B582B0D0F8D432B03350F82340BF
:104C800000EB83035A68002C00F08C8094F81C34ED
:104C9000042B05D0072B00F08180032002B010BD4B
:104CA000D4F8001400294AD1D4F80434012B53D08D
:104CB000052B36D12378212B20D0412B74D163785A
:104CC000A17803EB0123E17803EB01432079D2685B
:104CD00003EB0060904700283ED00A2284F81C2491
:104CE0000B2384F81434002384F8153484F8163424
:104CF00084F8173484F818240320CFE76378C4F8C5
:104D00000834A27803EB0223C4F80834E27803EBFA
:104D10000243C4F80834227903EB0263C4F8083470
:104D20001AE00023C4F80434C4F800348DF80030CD
:104D30000123ADF806306946FFF714FB0CE00129AA
:104D40000AD90239D4F808041369D4F8042400EB12
:104D500081212046984780B90020C4F80404C4F893
:104D60000004032384F81C3484F8150484F8160422
:104D700084F8170484F8183490E70A2284F81C2475
:104D80000B2384F81434002384F8153484F8163483
:104D900084F8173484F8182403207FE7FFF731FFE5
:104DA00000207BE7032079E7032077E7F8B50E467C
:104DB000D0F8D432B03350F8234000EB8303596865
:104DC000002C00F087800546F388002B76D094F8FD
:104DD0001C34092B18BF022B67D17088C4F800045B
:104DE000F288B2F5806F28BF4FF48062C4F80424C3
:104DF000D0B9032A16D9022284F81C24002384F88F
:104E0000153484F8163484F8173484F81824237081
:104E1000212363704123A37003222146284600F01A
:104E20007CFA57E00922E7E701282DD94FF0090C59
:104E300084F81CC4002384F8153484F8163484F8EC
:104E4000173484F818C40238D4F808344F6921465E
:104E500003EB8020B847014628B1D4F80424284643
:104E600000F05BFA36E00F2284F81C24002384F85B
:104E7000153484F8163484F8173484F8182431462D
:104E80002846FFF76FFA25E00F2284F81C24002340
:104E900084F8153484F8163484F8173484F8182408
:104EA00031462846FFF75EFA14E00023C4F80434C4
:104EB000C4F800343146FFF755FA0BE0022284F8BB
:104EC0001C24002384F8153484F8163484F817342D
:104ED00084F81824F8BD70B50446D0F8D432B03345
:104EE00050F8235000EB83035E68D0F8D002FFF740
:104EF0006DFE002E18BF002D0CD058B195F81C3453
:104F0000032B08D0062B38D0062205F21441204688
:104F100000F003FA70BDD5F804340BB3042285F811
:104F20001C24002385F8153485F8163485F81734C9
:104F300085F81824D5F8003413B92B78412B07D005
:104F4000B36905F214420121D5F808049847DBE75C
:104F5000B36905F214420021D5F808049847D3E755
:104F6000052285F81C24002385F8153485F81634AD
:104F700085F8173485F81824C6E795F81D34012BF9
:104F800012D0002BC0D1837813F0040FBCD00222C2
:104F900085F81C24002385F8153485F8163485F827
:104FA000173485F81824AFE7072385F81C3401224D
:104FB00085F81524002285F8162485F8172485F82D
:104FC0001834A1E708B5D0F8D432B03350F8231024
:104FD00021B1012201F21C4100F09FF908BD08B582
:104FE000D0F8D432B03350F823309BB3CA88E2B142
:104FF00093F81C24052A18BF022A13D14A88C3F843
:105000000024CA88B2F5806F28BF4FF48062C3F8CD
:105010000424032183F81C1483F81814194600F0A3
:1050200091F917E0FFF79EF914E093F81C24022A87
:1050300018BF052A0FD1012283F81D24062183F809
:105040001C14002283F8152483F8162483F81724EF
:1050500083F8181408BDFFF785F9FBE770B504461F
:105060000E46D0F8D432B03350F82350D0F8D002E6
:10507000FFF7ACFD002818BF002D28D0014695F899
:105080001C24092A19D84FF41B73D34013F0010FC5
:1050900013D0022285F81C24002385F8143485F8E7
:1050A000153485F8163485F8173485F8182485F8F2
:1050B0001934C5F80034C5F804348B7813F0080FA0
:1050C00006D02046FEF76BFF2046FEF764FF70BD5A
:1050D0007088FBF7D3FCFAE7F0B583B00E46D0F842
:1050E000D432B03350F823100023ADF80630002935
:1050F00000F098800546347814F060042ED0202CFF
:1051000040F089807478062C23D8DFE804F01E0470
:10511000090E12161A003146FFF761FF00247EE0E7
:105120003146FFF743FE002479E0FFF7D4FE002468
:1051300075E0FFF7E3FC002471E0FFF743FF002474
:105140006DE0FFF708FD002469E03146FFF786FFB8
:1051500065E03146FFF706F9032460E077780B2F0E
:1051600054D8DFE807F0065C535353531753535397
:105170002F3F90F89C32DBB2032B04D03146FFF76F
:10518000F1F803244BE002220DF1060100F0C5F80E
:105190003C4644E073881B0A212B40D1D0F8D00252
:1051A000FFF714FD014638B1F288092A28BF092209
:1051B000284600F0B2F832E031462846FFF7D2F830
:1051C00003242CE090F89C32DBB2032B04D0314650
:1051D000FFF7C8F8032422E0012201F5826100F004
:1051E0009CF81CE0B47864B990F89C32DBB2032BD5
:1051F00002D1C1F8104412E03146FFF7B3F803249E
:105200000DE03146FFF7AEF8032408E03146FFF722
:10521000A9F8032403E03146FFF7A4F8032420464D
:1052200003B0F0BD0324FAE738B5D0F8D432B03378
:1052300050F8233023B304460025C3F80054C3F8C4
:105240000454022283F81C2483F8145483F818248D
:10525000D0F8D432B03300EB83035B689B68984787
:10526000D4F8D432B03354F8230000F0F7FAD4F86D
:10527000D432B03344F82350C4F8BC52284638BD69
:105280000220FCE710B504464FF4846000F0E2FA17
:1052900058B3D4F8D422B03244F82200C4F8BC0287
:1052A0000022C0F810241649C0F80814C0F80024E1
:1052B000C0F8042480F81D24022180F81C1480F812
:1052C000142480F8152480F8162480F8172480F818
:1052D000181480F81924D4F8D432B03304EB8304C2
:1052E00063685B68984740B910BDD4F8D432B033D6
:1052F000002244F823200220F6E70320F4E700BF51
:105300000000040839B1D0F8D432B03300EB830088
:105310004160002070470320704708B51346022201
:10532000C0F894228361C3610A46002100F0D4FAD8
:10533000002008BD08B513460A46002100F0CCFA4B
:10534000002008BD08B513460322C0F89422C0F817
:105350005831C0F85C310A46002100F0C5FA00203F
:1053600008BD08B513460A46002100F0BDFA00202A
:1053700008BD08B50422C0F8942200231A46194635
:1053800000F0AAFA002008BD08B50522C0F8942252
:1053900000231A46194600F0A7FA002008BD0000B5
:1053A00008B5012210491148FEF7BEFD80B9104929
:1053B0000E48FEF7D0FD70B90E490C48FFF7A2FF6A
:1053C00060B90A48FEF7E7FD58B9FCF7C9FB08BD0C
:1053D000FBF70EF9EBE7FBF70BF9EDE7FBF708F945
:1053E000EFE7FBF705F9F0E7B00000247C020024AA
:1053F00040000024D000002412230B800048704796
:105400009C00002404230B8000487047980000246F
:10541000002393421ED200B510E00CF1370C01F8C6
:1054200013C000014FEA430C0CF1010C4FF0000EC9
:1054300001F80CE00133DBB2934209D24FEA107C51
:10544000B0F1204FE9D20CF1300C01F813C0E8E7BD
:105450005DF804FB7047000038B50B4BD3F800082B
:10546000D3F80448D3F80838C01800D138BD074D28
:1054700008222946FFF7CCFF042205F1100120463F
:10548000FFF7C6FFF2E700BF00E0F11F7E00002437
:1054900008B51A230B80FFF7DFFF014808BD00BFE6
:1054A0007C00002408B50A4628B905490548FFF7DD
:1054B000DFFA034808BD02490248FFF7D9FAF8E7C6
:1054C000580500241468000810B50A46034C21460C
:1054D0000348FFF7CDFA204610BD00BF5805002451
:1054E0003468000808B50A4628B905490548FFF799
:1054F000BFFA034808BD02490248FFF7B9FAF8E7C6
:10550000580500244868000808B50A4628B9054926
:105510000548FFF7ADFA034808BD02490248FFF706
:10552000A7FAF8E7580500245468000800207047DF
:10553000002070470020704700207047002070470F
:1055400000207047F0B5C1B0044600213B913C916A
:105550003D913E913F91C82208A800F027FC2268A7
:10556000564B9A4201D041B0F0BD4FF48022002347
:10557000CDE908234FF480132B9308A8FDF712FA06
:10558000002840F09780FCF7EBFA4D4CD4F8E0305F
:1055900043F00203C4F8E030D4F8E03003F0020333
:1055A0000193019BD4F8E03043F48073C4F8E030F9
:1055B000D4F8E03003F480730293029BD4F8E03017
:1055C00043F00403C4F8E030D4F8E03003F00403FF
:1055D0000393039BD4F8E03043F08003C4F8E03039
:1055E000D4F8E03003F080030493049BD4F8E03057
:1055F00043F00103C4F8E030D4F8E03003F00103D5
:105600000593059B43F623433B9302253C950026D7
:105610003D963E950A273F973BA92A48FBF7C2FAD9
:105620004FF400633B933C953D963E953F973BA9D5
:105630002548FBF7B7FA01233B933C953D963E95F1
:105640003F973BA92148FBF7ADFA10233B933C95CC
:105650003D963E953F973BA91D48FBF7A3FA2823AB
:105660003B933C953D963E953F973BA91948FBF7E8
:1056700099FAD4F8D83043F00073C4F8D830D4F88D
:10568000D83003F000730693069BD4F8D83043F06B
:105690008063C4F8D830D4F8D83003F0806307931F
:1056A000079B324631464D20FBF754FA4D20FBF75D
:1056B00061FA58E7FAF79CFF65E700BF0000044075
:1056C0000044025800040258002002580008025802
:1056D000001C02580000025808B500F29C41D0F8A6
:1056E000E004FEF77BFC08BD08B501EBC10300EB4D
:1056F0008303D3F86022D0F8E004FEF741FD08BD33
:1057000008B501EBC10300EB83031A6AD0F8E0048B
:10571000FEF798FD08BD08B5D0F8E004FEF7DBFC05
:1057200008BD10B50446C17911B1022909D1012182
:10573000D4F8E004FEF7B0FCD4F8E004FEF77AFCFD
:1057400010BDFAF755FF0121F2E7000010B504463D
:10575000D0F8E004FEF7A3FC2268D2F8003E43F044
:105760000103C2F8003EE37A23B1034A136943F010
:105770000603136110BD00BF00ED00E008B5D0F8CE
:10578000E004FEF79BFC08BD08B5D0F8E004FEF786
:10579000CAFC08BD08B5D0F8E004FEF7ADFC08BDB2
:1057A00008B5D0F8E004FEF7D5FC08BD08B5D0F880
:1057B000E004FEF7D1FC08BD0378012B01D00020E6
:1057C000704710B5164BC3F8E004C0F8C832154A4C
:1057D0001A6009221A710022DA719A710121597234
:1057E0009A72DA721A739A73DA731A741846FBF79C
:1057F0007FFB90B90A4C4FF400712046FCF74CF93E
:10580000802200212046FCF721F94FF4BA720121D1
:105810002046FCF71BF9002010BDFAF7E9FEE9E786
:105820007C0B002400000440D0F8C83211F0800F37
:1058300008D101F07F0101EBC10103EB810393F873
:105840005602704701F07F0101EBC10103EB8103B8
:10585000987D704700487047580700247047032818
:1058600005D8DFE800F00504020501207047032099
:10587000704708B5D0F8C802FBF7BBFBFFF7EFFF96
:1058800008BD08B5D0F8C802FBF7D5FBFFF7E7FF66
:1058900008BD08B594461A466346D0F8C802FBF71F
:1058A000AEFCFFF7DCFF08BD08B5D0F8C802FBF777
:1058B00036FDFFF7D4FF08BD08B5D0F8C802FBF7E6
:1058C00071FDFFF7CCFF08BD08B5D0F8C802FBF7A3
:1058D00083FCFFF7C4FF08BD08B5D0F8C802FBF78A
:1058E000F9FCFFF7BCFF08BD08B5D0F8C802FBF70C
:1058F000CCFCFFF7B4FF08BD70B50F4E0C46316805
:10590000054611B900F08EFA30602146284600F0B5
:1059100089FA431C03D14FF0FF34204670BDC41CEC
:1059200024F00304A042F8D0211A284600F07AFAA5
:105930000130F2D1EFE700BF601000242DE9F843F9
:10594000CD1C25F0030508350C2D38BF0C25002D86
:10595000064601DBA94204D90C2333600020BDE8D0
:10596000F883DFF8D48000F069F8D8F800301C46DE
:1059700044BB29463046FFF7BFFF431C044658D1BD
:10598000D8F800402746002F43D1002C4BD0236885
:105990003946304604EB030900F044FA814542D110
:1059A00021686D1A29463046FFF7A6FF01303AD02C
:1059B00023682B442360D8F800305A6862BBC8F8CB
:1059C00000700FE02268521B20D40B2A17D96119EE
:1059D000A342256018BF5960636808BFC8F800106B
:1059E00062514B60304600F02FF804F10B00231D8C
:1059F00020F00700C21A1CBF1B1AA350AFE7626851
:105A0000A3420CBFC8F800205A60EBE72346646845
:105A1000AEE73C467F68B6E71A465B68A342FBD117
:105A200000235360DEE70C233360304600F00CF8AF
:105A300094E70560D6E700BF64100024014800F039
:105A40003EBA00BFA8110024014800F039BA00BFD7
:105A5000A8110024002310B50446C0E90033C0E9B2
:105A60000433836081814366C281836119460822C1
:105A70005C3000F09BF90D4B63620D4BA3620D4B44
:105A8000E3620D4B23630D4B24629C4206D003F16D
:105A90006802944202D0D0339C4205D104F15800F0
:105AA000BDE8104000F00ABA10BD00BFFD5B000861
:105AB0001F5C0008575C00087B5C0008681000242D
:105AC000024A0349034800F069B800BFEC00002413
:105AD000FD650008FC00002441680C4B994210B59C
